{
  "abi": [
    {
      "inputs": [
        {
          "internalType": "address",
          "name": "_voronoiNFT",
          "type": "address"
        }
      ],
      "stateMutability": "nonpayable",
      "type": "constructor"
    },
    {
      "inputs": [],
      "name": "CLAIM_ACTIVE",
      "outputs": [
        {
          "internalType": "bool",
          "name": "",
          "type": "bool"
        }
      ],
      "stateMutability": "view",
      "type": "function"
    },
    {
      "inputs": [],
      "name": "_deployer",
      "outputs": [
        {
          "internalType": "address",
          "name": "",
          "type": "address"
        }
      ],
      "stateMutability": "view",
      "type": "function"
    },
    {
      "inputs": [],
      "name": "activateClaiming",
      "outputs": [],
      "stateMutability": "nonpayable",
      "type": "function"
    },
    {
      "inputs": [
        {
          "internalType": "uint256",
          "name": "amountClaiming",
          "type": "uint256"
        }
      ],
      "name": "claimFreeVoronoi",
      "outputs": [],
      "stateMutability": "nonpayable",
      "type": "function"
    },
    {
      "inputs": [],
      "name": "claimFreeVoronoi",
      "outputs": [],
      "stateMutability": "nonpayable",
      "type": "function"
    },
    {
      "inputs": [
        {
          "internalType": "uint256",
          "name": "amountClaiming",
          "type": "uint256"
        }
      ],
      "name": "claimVoronoi",
      "outputs": [],
      "stateMutability": "payable",
      "type": "function"
    },
    {
      "inputs": [],
      "name": "claimVoronoi",
      "outputs": [],
      "stateMutability": "payable",
      "type": "function"
    },
    {
      "inputs": [
        {
          "internalType": "address",
          "name": "",
          "type": "address"
        }
      ],
      "name": "freeMints",
      "outputs": [
        {
          "internalType": "uint256",
          "name": "",
          "type": "uint256"
        }
      ],
      "stateMutability": "view",
      "type": "function"
    },
    {
      "inputs": [],
      "name": "nextId",
      "outputs": [
        {
          "internalType": "uint256",
          "name": "",
          "type": "uint256"
        }
      ],
      "stateMutability": "view",
      "type": "function"
    },
    {
      "inputs": [],
      "name": "renounceDeployerPermissions",
      "outputs": [],
      "stateMutability": "nonpayable",
      "type": "function"
    },
    {
      "inputs": [
        {
          "internalType": "address[]",
          "name": "mintList",
          "type": "address[]"
        },
        {
          "internalType": "uint256[]",
          "name": "mintAmounts",
          "type": "uint256[]"
        }
      ],
      "name": "setFreeMintList",
      "outputs": [],
      "stateMutability": "nonpayable",
      "type": "function"
    },
    {
      "inputs": [],
      "name": "setGlobalSeed",
      "outputs": [],
      "stateMutability": "nonpayable",
      "type": "function"
    },
    {
      "inputs": [
        {
          "internalType": "address",
          "name": "_voronoiNFT",
          "type": "address"
        }
      ],
      "name": "setVoronoiNFT",
      "outputs": [],
      "stateMutability": "nonpayable",
      "type": "function"
    },
    {
      "inputs": [],
      "name": "withdrawETH",
      "outputs": [],
      "stateMutability": "nonpayable",
      "type": "function"
    }
  ],
  "bytecode": {
    "object": "0x608060405260016000556002805460ff60a01b1916905534801561002257600080fd5b506040516111d83803806111d883398101604081905261004191610074565b60028054336001600160a01b031991821617909155600180549091166001600160a01b03929092169190911790556100a4565b60006020828403121561008657600080fd5b81516001600160a01b038116811461009d57600080fd5b9392505050565b611125806100b36000396000f3fe6080604052600436106100dd5760003560e01c80636d41d4fb1161007f578063d310556b11610059578063d310556b14610201578063e086e5ec14610239578063e23d20611461024e578063e65bdf4a1461025657600080fd5b80636d41d4fb1461019f5780638722125d146101cc5780638cae4805146101ec57600080fd5b8063364f043a116100bb578063364f043a1461012157806352dd3f421461013657806360cd5a2f1461015657806361b8ce8c1461017657600080fd5b80631d56d6d8146100e257806322dbc72b146100f95780632e7e87681461010c575b600080fd5b3480156100ee57600080fd5b506100f7610287565b005b6100f7610107366004610d5b565b610462565b34801561011857600080fd5b506100f76105c5565b34801561012d57600080fd5b506100f7610604565b34801561014257600080fd5b506100f7610151366004610d5b565b6106d5565b34801561016257600080fd5b506100f7610171366004610e66565b610857565b34801561018257600080fd5b5061018c60045481565b6040519081526020015b60405180910390f35b3480156101ab57600080fd5b5061018c6101ba366004610f26565b60036020526000908152604090205481565b3480156101d857600080fd5b506100f76101e7366004610f26565b61098a565b3480156101f857600080fd5b506100f76109d6565b34801561020d57600080fd5b50600254610221906001600160a01b031681565b6040516001600160a01b039091168152602001610196565b34801561024557600080fd5b506100f7610b1c565b6100f7610b82565b34801561026257600080fd5b5060025461027790600160a01b900460ff1681565b6040519015158152602001610196565b6002546001600160a01b031633146102ba5760405162461bcd60e51b81526004016102b190610f48565b60405180910390fd5b6001546001600160a01b03166103035760405162461bcd60e51b815260206004820152600e60248201526d155394d15517d0d3d395149050d560921b60448201526064016102b1565b600160009054906101000a90046001600160a01b03166001600160a01b03166307aafa986040518163ffffffff1660e01b81526004016020604051808303816000875af1158015610358573d6000803e3d6000fd5b505050506040513d601f19601f8201168201806040525081019061037c9190610f6f565b156103b45760405162461bcd60e51b815260206004820152600860248201526714d1515117d4d15560c21b60448201526064016102b1565b600154604080514260208201526bffffffffffffffffffffffff194160601b16918101919091524560548201524460748201526001600160a01b03909116906302aff3789060940160408051808303601f1901815290829052805160209091012060e083901b6001600160e01b03191682526004820152602401600060405180830381600087803b15801561044857600080fd5b505af115801561045c573d6000803e3d6000fd5b50505050565b600254600160a01b900460ff16801561047b5750600081115b80156104955750612710816004546104939190610f9e565b105b6104b15760405162461bcd60e51b81526004016102b190610fb6565b66957588590e50006104c38234610fdb565b10156105075760405162461bcd60e51b8152602060048201526013602482015272125394d551919250d1539517d4105653515395606a1b60448201526064016102b1565b6000805b828110156105c0576004805492508290600061052683610ffa565b90915550506001546001600160a01b031663d417f771338461054781610c19565b6040516001600160e01b031960e086901b1681526001600160a01b03909316600484015260248301919091526044820152606401600060405180830381600087803b15801561059557600080fd5b505af11580156105a9573d6000803e3d6000fd5b5050505080806105b890610ffa565b91505061050b565b505050565b6002546001600160a01b031633146105ef5760405162461bcd60e51b81526004016102b190610f48565b6002805460ff60a01b1916600160a01b179055565b6002546001600160a01b0316331461062e5760405162461bcd60e51b81526004016102b190610f48565b610636610b1c565b61063e6105c5565b600160009054906101000a90046001600160a01b03166001600160a01b03166307aafa986040518163ffffffff1660e01b81526004016020604051808303816000875af1158015610693573d6000803e3d6000fd5b505050506040513d601f19601f820116820180604052508101906106b79190610f6f565b6106c3576106c3610287565b600280546001600160a81b0319169055565b600254600160a01b900460ff1680156106ee5750600081115b80156107085750612710816004546107069190610f9e565b105b6107245760405162461bcd60e51b81526004016102b190610fb6565b336000908152600360205260409020548111156107795760405162461bcd60e51b8152602060048201526013602482015272494e53554646494349454e545f434c41494d5360681b60448201526064016102b1565b3360009081526003602052604081208054839290610798908490611015565b9091555060009050805b828110156105c057600480549250829060006107bd83610ffa565b90915550506001546001600160a01b031663d417f77133846107de81610c19565b6040516001600160e01b031960e086901b1681526001600160a01b03909316600484015260248301919091526044820152606401600060405180830381600087803b15801561082c57600080fd5b505af1158015610840573d6000803e3d6000fd5b50505050808061084f90610ffa565b9150506107a2565b6002546001600160a01b031633146108815760405162461bcd60e51b81526004016102b190610f48565b600254600160a01b900460ff16156108ce5760405162461bcd60e51b815260206004820152601060248201526f10d3105253525391d7d4d5105495115160821b60448201526064016102b1565b805182511461090f5760405162461bcd60e51b815260206004820152600d60248201526c131254d514d7d5539154555053609a1b60448201526064016102b1565b60005b82518110156105c05781818151811061092d5761092d61102c565b60200260200101516003600085848151811061094b5761094b61102c565b60200260200101516001600160a01b03166001600160a01b0316815260200190815260200160002081905550808061098290610ffa565b915050610912565b6002546001600160a01b031633146109b45760405162461bcd60e51b81526004016102b190610f48565b600180546001600160a01b0319166001600160a01b0392909216919091179055565b600254600160a01b900460ff1680156109f25750612710600454105b610a0e5760405162461bcd60e51b81526004016102b190610fb6565b33600090815260036020526040902054610a605760405162461bcd60e51b8152602060048201526013602482015272494e53554646494349454e545f434c41494d5360681b60448201526064016102b1565b336000908152600360205260408120805491610a7b83611042565b9091555050600480549081906000610a9283610ffa565b90915550506001546001600160a01b031663d417f7713383610ab381610c19565b6040516001600160e01b031960e086901b1681526001600160a01b03909316600484015260248301919091526044820152606401600060405180830381600087803b158015610b0157600080fd5b505af1158015610b15573d6000803e3d6000fd5b5050505050565b6002546001600160a01b03163314610b465760405162461bcd60e51b81526004016102b190610f48565b6002546040516001600160a01b03909116904780156108fc02916000818181858888f19350505050158015610b7f573d6000803e3d6000fd5b50565b600254600160a01b900460ff168015610b9e5750612710600454105b610bba5760405162461bcd60e51b81526004016102b190610fb6565b66957588590e5000341015610c075760405162461bcd60e51b8152602060048201526013602482015272125394d551919250d1539517d4105653515395606a1b60448201526064016102b1565b600480549081906000610a9283610ffa565b6000610c2482610c55565b4241604051602001610c3893929190611059565b604051602081830303815290604052805190602001209050919050565b606081610c795750506040805180820190915260018152600360fc1b602082015290565b8160005b8115610ca35780610c8d81610ffa565b9150610c9c9050600a836110c7565b9150610c7d565b60008167ffffffffffffffff811115610cbe57610cbe610d74565b6040519080825280601f01601f191660200182016040528015610ce8576020820181803683370190505b5090505b8415610d5357610cfd600183611015565b9150610d0a600a866110db565b610d15906030610f9e565b60f81b818381518110610d2a57610d2a61102c565b60200101906001600160f81b031916908160001a905350610d4c600a866110c7565b9450610cec565b949350505050565b600060208284031215610d6d57600080fd5b5035919050565b634e487b7160e01b600052604160045260246000fd5b604051601f8201601f1916810167ffffffffffffffff81118282101715610db357610db3610d74565b604052919050565b600067ffffffffffffffff821115610dd557610dd5610d74565b5060051b60200190565b80356001600160a01b0381168114610df657600080fd5b919050565b600082601f830112610e0c57600080fd5b81356020610e21610e1c83610dbb565b610d8a565b82815260059290921b84018101918181019086841115610e4057600080fd5b8286015b84811015610e5b5780358352918301918301610e44565b509695505050505050565b60008060408385031215610e7957600080fd5b823567ffffffffffffffff80821115610e9157600080fd5b818501915085601f830112610ea557600080fd5b81356020610eb5610e1c83610dbb565b82815260059290921b84018101918181019089841115610ed457600080fd5b948201945b83861015610ef957610eea86610ddf565b82529482019490820190610ed9565b96505086013592505080821115610f0f57600080fd5b50610f1c85828601610dfb565b9150509250929050565b600060208284031215610f3857600080fd5b610f4182610ddf565b9392505050565b6020808252600d908201526c1393d517d41154935255151151609a1b604082015260600190565b600060208284031215610f8157600080fd5b5051919050565b634e487b7160e01b600052601160045260246000fd5b60008219821115610fb157610fb1610f88565b500190565b6020808252600b908201526a21a620a4a6afa2a92927a960a91b604082015260600190565b6000816000190483118215151615610ff557610ff5610f88565b500290565b600060001982141561100e5761100e610f88565b5060010190565b60008282101561102757611027610f88565b500390565b634e487b7160e01b600052603260045260246000fd5b60008161105157611051610f88565b506000190190565b6000845160005b8181101561107a5760208188018101518583015201611060565b81811115611089576000828501525b50919091019283525060601b6bffffffffffffffffffffffff19166020820152603401919050565b634e487b7160e01b600052601260045260246000fd5b6000826110d6576110d66110b1565b500490565b6000826110ea576110ea6110b1565b50069056fea26469706673582212205a38b3c30e86e9c5a78393f4a1c8dfe057c1289bc80b9e243cc88bf50ae31c6764736f6c634300080a0033",
    "linkReferences": {}
  }
}