{
  "abi": [
    {
      "inputs": [
        {
          "internalType": "address",
          "name": "_voronoiNFT",
          "type": "address"
        },
        {
          "internalType": "address",
          "name": "_phaseManager",
          "type": "address"
        }
      ],
      "stateMutability": "nonpayable",
      "type": "constructor"
    },
    {
      "inputs": [],
      "name": "_deployer",
      "outputs": [
        {
          "internalType": "address",
          "name": "",
          "type": "address"
        }
      ],
      "stateMutability": "view",
      "type": "function"
    },
    {
      "inputs": [
        {
          "internalType": "uint256",
          "name": "amountClaiming",
          "type": "uint256"
        }
      ],
      "name": "claimFreeVoronoi",
      "outputs": [],
      "stateMutability": "nonpayable",
      "type": "function"
    },
    {
      "inputs": [],
      "name": "claimFreeVoronoi",
      "outputs": [],
      "stateMutability": "nonpayable",
      "type": "function"
    },
    {
      "inputs": [
        {
          "internalType": "uint256",
          "name": "amountClaiming",
          "type": "uint256"
        }
      ],
      "name": "claimVoronoi",
      "outputs": [],
      "stateMutability": "payable",
      "type": "function"
    },
    {
      "inputs": [],
      "name": "claimVoronoi",
      "outputs": [],
      "stateMutability": "payable",
      "type": "function"
    },
    {
      "inputs": [
        {
          "internalType": "address",
          "name": "",
          "type": "address"
        }
      ],
      "name": "freeMints",
      "outputs": [
        {
          "internalType": "uint256",
          "name": "",
          "type": "uint256"
        }
      ],
      "stateMutability": "view",
      "type": "function"
    },
    {
      "inputs": [],
      "name": "nextId",
      "outputs": [
        {
          "internalType": "uint256",
          "name": "",
          "type": "uint256"
        }
      ],
      "stateMutability": "view",
      "type": "function"
    },
    {
      "inputs": [],
      "name": "renounceDeployerPermissions",
      "outputs": [],
      "stateMutability": "nonpayable",
      "type": "function"
    },
    {
      "inputs": [
        {
          "internalType": "address[]",
          "name": "mintList",
          "type": "address[]"
        },
        {
          "internalType": "uint256[]",
          "name": "mintAmounts",
          "type": "uint256[]"
        }
      ],
      "name": "setFreeMintList",
      "outputs": [],
      "stateMutability": "nonpayable",
      "type": "function"
    },
    {
      "inputs": [],
      "name": "setGlobalSeed",
      "outputs": [],
      "stateMutability": "nonpayable",
      "type": "function"
    },
    {
      "inputs": [
        {
          "internalType": "address",
          "name": "_voronoiNFT",
          "type": "address"
        }
      ],
      "name": "setVoronoiNFT",
      "outputs": [],
      "stateMutability": "nonpayable",
      "type": "function"
    },
    {
      "inputs": [],
      "name": "withdrawETH",
      "outputs": [],
      "stateMutability": "nonpayable",
      "type": "function"
    }
  ],
  "bytecode": {
    "object": "0x6080604052600160005534801561001557600080fd5b506040516113fd3803806113fd8339810160408190526100349161008c565b600380546001600160a01b03199081163317909155600180546001600160a01b03948516908316179055600280549290931691161790556100bf565b80516001600160a01b038116811461008757600080fd5b919050565b6000806040838503121561009f57600080fd5b6100a883610070565b91506100b660208401610070565b90509250929050565b61132f806100ce6000396000f3fe6080604052600436106100a75760003560e01c80636d41d4fb116100645780636d41d4fb146101545780638722125d146101815780638cae4805146101a1578063d310556b146101b6578063e086e5ec146101ee578063e23d20611461020357600080fd5b80631d56d6d8146100ac57806322dbc72b146100c3578063364f043a146100d657806352dd3f42146100eb57806360cd5a2f1461010b57806361b8ce8c1461012b575b600080fd5b3480156100b857600080fd5b506100c161020b565b005b6100c16100d1366004610f03565b6103e6565b3480156100e257600080fd5b506100c16105d0565b3480156100f757600080fd5b506100c1610106366004610f03565b610699565b34801561011757600080fd5b506100c161012636600461100e565b6108a2565b34801561013757600080fd5b5061014160055481565b6040519081526020015b60405180910390f35b34801561016057600080fd5b5061014161016f3660046110ce565b60046020526000908152604090205481565b34801561018d57600080fd5b506100c161019c3660046110ce565b610a24565b3480156101ad57600080fd5b506100c1610a70565b3480156101c257600080fd5b506003546101d6906001600160a01b031681565b6040516001600160a01b03909116815260200161014b565b3480156101fa57600080fd5b506100c1610c3d565b6100c1610ca3565b6003546001600160a01b0316331461023e5760405162461bcd60e51b8152600401610235906110f0565b60405180910390fd5b6001546001600160a01b03166102875760405162461bcd60e51b815260206004820152600e60248201526d155394d15517d0d3d395149050d560921b6044820152606401610235565b600160009054906101000a90046001600160a01b03166001600160a01b03166307aafa986040518163ffffffff1660e01b81526004016020604051808303816000875af11580156102dc573d6000803e3d6000fd5b505050506040513d601f19601f820116820180604052508101906103009190611117565b156103385760405162461bcd60e51b815260206004820152600860248201526714d1515117d4d15560c21b6044820152606401610235565b600154604080514260208201526bffffffffffffffffffffffff194160601b16918101919091524560548201524460748201526001600160a01b03909116906302aff3789060940160408051808303601f1901815290829052805160209091012060e083901b6001600160e01b03191682526004820152602401600060405180830381600087803b1580156103cc57600080fd5b505af11580156103e0573d6000803e3d6000fd5b50505050565b600254604080516302ad6a1760e11b815290516001926001600160a01b03169163055ad42e9160048083019260209291908290030181865afa158015610430573d6000803e3d6000fd5b505050506040513d601f19601f820116820180604052508101906104549190611146565b600381111561046557610465611130565b146104825760405162461bcd60e51b815260040161023590611167565b6000811180156104a057506127108160055461049e91906111a8565b105b6104bc5760405162461bcd60e51b8152600401610235906111c0565b66957588590e50006104ce82346111e5565b10156105125760405162461bcd60e51b8152602060048201526013602482015272125394d551919250d1539517d4105653515395606a1b6044820152606401610235565b6000805b828110156105cb576005805492508290600061053183611204565b90915550506001546001600160a01b031663d417f771338461055281610dc1565b6040516001600160e01b031960e086901b1681526001600160a01b03909316600484015260248301919091526044820152606401600060405180830381600087803b1580156105a057600080fd5b505af11580156105b4573d6000803e3d6000fd5b5050505080806105c390611204565b915050610516565b505050565b6003546001600160a01b031633146105fa5760405162461bcd60e51b8152600401610235906110f0565b610602610c3d565b600160009054906101000a90046001600160a01b03166001600160a01b03166307aafa986040518163ffffffff1660e01b81526004016020604051808303816000875af1158015610657573d6000803e3d6000fd5b505050506040513d601f19601f8201168201806040525081019061067b9190611117565b6106875761068761020b565b600380546001600160a01b0319169055565b600254604080516302ad6a1760e11b815290516001926001600160a01b03169163055ad42e9160048083019260209291908290030181865afa1580156106e3573d6000803e3d6000fd5b505050506040513d601f19601f820116820180604052508101906107079190611146565b600381111561071857610718611130565b146107355760405162461bcd60e51b815260040161023590611167565b60008111801561075357506127108160055461075191906111a8565b105b61076f5760405162461bcd60e51b8152600401610235906111c0565b336000908152600460205260409020548111156107c45760405162461bcd60e51b8152602060048201526013602482015272494e53554646494349454e545f434c41494d5360681b6044820152606401610235565b33600090815260046020526040812080548392906107e390849061121f565b9091555060009050805b828110156105cb576005805492508290600061080883611204565b90915550506001546001600160a01b031663d417f771338461082981610dc1565b6040516001600160e01b031960e086901b1681526001600160a01b03909316600484015260248301919091526044820152606401600060405180830381600087803b15801561087757600080fd5b505af115801561088b573d6000803e3d6000fd5b50505050808061089a90611204565b9150506107ed565b6003546001600160a01b031633146108cc5760405162461bcd60e51b8152600401610235906110f0565b600254604080516302ad6a1760e11b815290516000926001600160a01b03169163055ad42e9160048083019260209291908290030181865afa158015610916573d6000803e3d6000fd5b505050506040513d601f19601f8201168201806040525081019061093a9190611146565b600381111561094b5761094b611130565b146109685760405162461bcd60e51b8152600401610235906110f0565b80518251146109a95760405162461bcd60e51b815260206004820152600d60248201526c131254d514d7d5539154555053609a1b6044820152606401610235565b60005b82518110156105cb578181815181106109c7576109c7611236565b6020026020010151600460008584815181106109e5576109e5611236565b60200260200101516001600160a01b03166001600160a01b03168152602001908152602001600020819055508080610a1c90611204565b9150506109ac565b6003546001600160a01b03163314610a4e5760405162461bcd60e51b8152600401610235906110f0565b600180546001600160a01b0319166001600160a01b0392909216919091179055565b600254604080516302ad6a1760e11b815290516001926001600160a01b03169163055ad42e9160048083019260209291908290030181865afa158015610aba573d6000803e3d6000fd5b505050506040513d601f19601f82011682018060405250810190610ade9190611146565b6003811115610aef57610aef611130565b14610b0c5760405162461bcd60e51b815260040161023590611167565b61271060055410610b2f5760405162461bcd60e51b8152600401610235906111c0565b33600090815260046020526040902054610b815760405162461bcd60e51b8152602060048201526013602482015272494e53554646494349454e545f434c41494d5360681b6044820152606401610235565b336000908152600460205260408120805491610b9c8361124c565b9091555050600580549081906000610bb383611204565b90915550506001546001600160a01b031663d417f7713383610bd481610dc1565b6040516001600160e01b031960e086901b1681526001600160a01b03909316600484015260248301919091526044820152606401600060405180830381600087803b158015610c2257600080fd5b505af1158015610c36573d6000803e3d6000fd5b5050505050565b6003546001600160a01b03163314610c675760405162461bcd60e51b8152600401610235906110f0565b6003546040516001600160a01b03909116904780156108fc02916000818181858888f19350505050158015610ca0573d6000803e3d6000fd5b50565b600254604080516302ad6a1760e11b815290516001926001600160a01b03169163055ad42e9160048083019260209291908290030181865afa158015610ced573d6000803e3d6000fd5b505050506040513d601f19601f82011682018060405250810190610d119190611146565b6003811115610d2257610d22611130565b14610d3f5760405162461bcd60e51b815260040161023590611167565b61271060055410610d625760405162461bcd60e51b8152600401610235906111c0565b66957588590e5000341015610daf5760405162461bcd60e51b8152602060048201526013602482015272125394d551919250d1539517d4105653515395606a1b6044820152606401610235565b600580549081906000610bb383611204565b6000610dcc82610dfd565b4241604051602001610de093929190611263565b604051602081830303815290604052805190602001209050919050565b606081610e215750506040805180820190915260018152600360fc1b602082015290565b8160005b8115610e4b5780610e3581611204565b9150610e449050600a836112d1565b9150610e25565b60008167ffffffffffffffff811115610e6657610e66610f1c565b6040519080825280601f01601f191660200182016040528015610e90576020820181803683370190505b5090505b8415610efb57610ea560018361121f565b9150610eb2600a866112e5565b610ebd9060306111a8565b60f81b818381518110610ed257610ed2611236565b60200101906001600160f81b031916908160001a905350610ef4600a866112d1565b9450610e94565b949350505050565b600060208284031215610f1557600080fd5b5035919050565b634e487b7160e01b600052604160045260246000fd5b604051601f8201601f1916810167ffffffffffffffff81118282101715610f5b57610f5b610f1c565b604052919050565b600067ffffffffffffffff821115610f7d57610f7d610f1c565b5060051b60200190565b80356001600160a01b0381168114610f9e57600080fd5b919050565b600082601f830112610fb457600080fd5b81356020610fc9610fc483610f63565b610f32565b82815260059290921b84018101918181019086841115610fe857600080fd5b8286015b848110156110035780358352918301918301610fec565b509695505050505050565b6000806040838503121561102157600080fd5b823567ffffffffffffffff8082111561103957600080fd5b818501915085601f83011261104d57600080fd5b8135602061105d610fc483610f63565b82815260059290921b8401810191818101908984111561107c57600080fd5b948201945b838610156110a15761109286610f87565b82529482019490820190611081565b965050860135925050808211156110b757600080fd5b506110c485828601610fa3565b9150509250929050565b6000602082840312156110e057600080fd5b6110e982610f87565b9392505050565b6020808252600d908201526c1393d517d41154935255151151609a1b604082015260600190565b60006020828403121561112957600080fd5b5051919050565b634e487b7160e01b600052602160045260246000fd5b60006020828403121561115857600080fd5b8151600481106110e957600080fd5b6020808252601190820152704e4f545f4d494e54494e475f504841534560781b604082015260600190565b634e487b7160e01b600052601160045260246000fd5b600082198211156111bb576111bb611192565b500190565b6020808252600b908201526a21a620a4a6afa2a92927a960a91b604082015260600190565b60008160001904831182151516156111ff576111ff611192565b500290565b600060001982141561121857611218611192565b5060010190565b60008282101561123157611231611192565b500390565b634e487b7160e01b600052603260045260246000fd5b60008161125b5761125b611192565b506000190190565b6000845160005b81811015611284576020818801810151858301520161126a565b81811115611293576000828501525b50919091019283525060601b6bffffffffffffffffffffffff19166020820152603401919050565b634e487b7160e01b600052601260045260246000fd5b6000826112e0576112e06112bb565b500490565b6000826112f4576112f46112bb565b50069056fea2646970667358221220190610e3aeeedf844fb3819e896a2fa9e9ec6f8e23feccf2ffc032769323195964736f6c634300080a0033",
    "linkReferences": {}
  }
}