{
  "abi": [
    {
      "inputs": [
        {
          "internalType": "address",
          "name": "_voronoiNFT",
          "type": "address"
        },
        {
          "internalType": "address",
          "name": "_phaseManager",
          "type": "address"
        }
      ],
      "stateMutability": "nonpayable",
      "type": "constructor"
    },
    {
      "inputs": [],
      "name": "_deployer",
      "outputs": [
        {
          "internalType": "address",
          "name": "",
          "type": "address"
        }
      ],
      "stateMutability": "view",
      "type": "function"
    },
    {
      "inputs": [
        {
          "internalType": "uint256",
          "name": "amountClaiming",
          "type": "uint256"
        }
      ],
      "name": "claimFreeVoronoi",
      "outputs": [],
      "stateMutability": "nonpayable",
      "type": "function"
    },
    {
      "inputs": [],
      "name": "claimFreeVoronoi",
      "outputs": [],
      "stateMutability": "nonpayable",
      "type": "function"
    },
    {
      "inputs": [
        {
          "internalType": "uint256",
          "name": "amountClaiming",
          "type": "uint256"
        }
      ],
      "name": "claimVoronoi",
      "outputs": [],
      "stateMutability": "payable",
      "type": "function"
    },
    {
      "inputs": [],
      "name": "claimVoronoi",
      "outputs": [],
      "stateMutability": "payable",
      "type": "function"
    },
    {
      "inputs": [
        {
          "internalType": "address",
          "name": "",
          "type": "address"
        }
      ],
      "name": "freeMints",
      "outputs": [
        {
          "internalType": "uint256",
          "name": "",
          "type": "uint256"
        }
      ],
      "stateMutability": "view",
      "type": "function"
    },
    {
      "inputs": [],
      "name": "nextId",
      "outputs": [
        {
          "internalType": "uint256",
          "name": "",
          "type": "uint256"
        }
      ],
      "stateMutability": "view",
      "type": "function"
    },
    {
      "inputs": [],
      "name": "renounceDeployerPermissions",
      "outputs": [],
      "stateMutability": "nonpayable",
      "type": "function"
    },
    {
      "inputs": [
        {
          "internalType": "address[]",
          "name": "mintList",
          "type": "address[]"
        },
        {
          "internalType": "uint256[]",
          "name": "mintAmounts",
          "type": "uint256[]"
        }
      ],
      "name": "setFreeMintList",
      "outputs": [],
      "stateMutability": "nonpayable",
      "type": "function"
    },
    {
      "inputs": [
        {
          "internalType": "address",
          "name": "_voronoiNFT",
          "type": "address"
        }
      ],
      "name": "setVoronoiNFT",
      "outputs": [],
      "stateMutability": "nonpayable",
      "type": "function"
    },
    {
      "inputs": [],
      "name": "withdrawETH",
      "outputs": [],
      "stateMutability": "nonpayable",
      "type": "function"
    }
  ],
  "bytecode": {
    "object": "0x6080604052600160005534801561001557600080fd5b506040516113143803806113148339810160408190526100349161008c565b600380546001600160a01b03199081163317909155600180546001600160a01b03948516908316179055600280549290931691161790556100bf565b80516001600160a01b038116811461008757600080fd5b919050565b6000806040838503121561009f57600080fd5b6100a883610070565b91506100b660208401610070565b90509250929050565b611246806100ce6000396000f3fe60806040526004361061009c5760003560e01c80636d41d4fb116100645780636d41d4fb146101345780638722125d146101615780638cae480514610181578063d310556b14610196578063e086e5ec146101ce578063e23d2061146101e357600080fd5b806322dbc72b146100a1578063364f043a146100b657806352dd3f42146100cb57806360cd5a2f146100eb57806361b8ce8c1461010b575b600080fd5b6100b46100af366004610d7b565b6101eb565b005b3480156100c257600080fd5b506100b46103c8565b3480156100d757600080fd5b506100b46100e6366004610d7b565b61040c565b3480156100f757600080fd5b506100b4610106366004610e86565b6105ff565b34801561011757600080fd5b5061012160055481565b6040519081526020015b60405180910390f35b34801561014057600080fd5b5061012161014f366004610f46565b60046020526000908152604090205481565b34801561016d57600080fd5b506100b461017c366004610f46565b610781565b34801561018d57600080fd5b506100b46107cd565b3480156101a257600080fd5b506003546101b6906001600160a01b031681565b6040516001600160a01b03909116815260200161012b565b3480156101da57600080fd5b506100b4610984565b6100b46109ea565b600254604080516302ad6a1760e11b815290516001926001600160a01b03169163055ad42e9160048083019260209291908290030181865afa158015610235573d6000803e3d6000fd5b505050506040513d601f19601f820116820180604052508101906102599190610f7e565b600381111561026a5761026a610f68565b146102905760405162461bcd60e51b815260040161028790610f9f565b60405180910390fd5b6000811180156102ae5750612710816005546102ac9190610fe0565b105b6102ca5760405162461bcd60e51b815260040161028790610ff8565b66957588590e50006102dc823461101d565b10156103205760405162461bcd60e51b8152602060048201526013602482015272125394d551919250d1539517d4105653515395606a1b6044820152606401610287565b6000805b828110156103c3576005805492508290600061033f8361103c565b90915550506001546001600160a01b0316633d55ad9c338461036081610b08565b6040518463ffffffff1660e01b815260040161037e93929190611057565b600060405180830381600087803b15801561039857600080fd5b505af11580156103ac573d6000803e3d6000fd5b5050505080806103bb9061103c565b915050610324565b505050565b6003546001600160a01b031633146103f25760405162461bcd60e51b8152600401610287906110a5565b6103fa610984565b600380546001600160a01b0319169055565b600254604080516302ad6a1760e11b815290516001926001600160a01b03169163055ad42e9160048083019260209291908290030181865afa158015610456573d6000803e3d6000fd5b505050506040513d601f19601f8201168201806040525081019061047a9190610f7e565b600381111561048b5761048b610f68565b146104a85760405162461bcd60e51b815260040161028790610f9f565b6000811180156104c65750612710816005546104c49190610fe0565b105b6104e25760405162461bcd60e51b815260040161028790610ff8565b336000908152600460205260409020548111156105375760405162461bcd60e51b8152602060048201526013602482015272494e53554646494349454e545f434c41494d5360681b6044820152606401610287565b33600090815260046020526040812080548392906105569084906110cc565b9091555060009050805b828110156103c3576005805492508290600061057b8361103c565b90915550506001546001600160a01b0316633d55ad9c338461059c81610b08565b6040518463ffffffff1660e01b81526004016105ba93929190611057565b600060405180830381600087803b1580156105d457600080fd5b505af11580156105e8573d6000803e3d6000fd5b5050505080806105f79061103c565b915050610560565b6003546001600160a01b031633146106295760405162461bcd60e51b8152600401610287906110a5565b600254604080516302ad6a1760e11b815290516000926001600160a01b03169163055ad42e9160048083019260209291908290030181865afa158015610673573d6000803e3d6000fd5b505050506040513d601f19601f820116820180604052508101906106979190610f7e565b60038111156106a8576106a8610f68565b146106c55760405162461bcd60e51b8152600401610287906110a5565b80518251146107065760405162461bcd60e51b815260206004820152600d60248201526c131254d514d7d5539154555053609a1b6044820152606401610287565b60005b82518110156103c357818181518110610724576107246110e3565b602002602001015160046000858481518110610742576107426110e3565b60200260200101516001600160a01b03166001600160a01b031681526020019081526020016000208190555080806107799061103c565b915050610709565b6003546001600160a01b031633146107ab5760405162461bcd60e51b8152600401610287906110a5565b600180546001600160a01b0319166001600160a01b0392909216919091179055565b600254604080516302ad6a1760e11b815290516001926001600160a01b03169163055ad42e9160048083019260209291908290030181865afa158015610817573d6000803e3d6000fd5b505050506040513d601f19601f8201168201806040525081019061083b9190610f7e565b600381111561084c5761084c610f68565b146108695760405162461bcd60e51b815260040161028790610f9f565b6127106005541061088c5760405162461bcd60e51b815260040161028790610ff8565b336000908152600460205260409020546108de5760405162461bcd60e51b8152602060048201526013602482015272494e53554646494349454e545f434c41494d5360681b6044820152606401610287565b3360009081526004602052604081208054916108f9836110f9565b90915550506005805490819060006109108361103c565b90915550506001546001600160a01b0316633d55ad9c338361093181610b08565b6040518463ffffffff1660e01b815260040161094f93929190611057565b600060405180830381600087803b15801561096957600080fd5b505af115801561097d573d6000803e3d6000fd5b5050505050565b6003546001600160a01b031633146109ae5760405162461bcd60e51b8152600401610287906110a5565b6003546040516001600160a01b03909116904780156108fc02916000818181858888f193505050501580156109e7573d6000803e3d6000fd5b50565b600254604080516302ad6a1760e11b815290516001926001600160a01b03169163055ad42e9160048083019260209291908290030181865afa158015610a34573d6000803e3d6000fd5b505050506040513d601f19601f82011682018060405250810190610a589190610f7e565b6003811115610a6957610a69610f68565b14610a865760405162461bcd60e51b815260040161028790610f9f565b61271060055410610aa95760405162461bcd60e51b815260040161028790610ff8565b66957588590e5000341015610af65760405162461bcd60e51b8152602060048201526013602482015272125394d551919250d1539517d4105653515395606a1b6044820152606401610287565b6005805490819060006109108361103c565b610b10610d5d565b6000610b1b83610bfa565b4241604051602001610b2f93929190611110565b6040516020818303038152906040528051906020012090506065610938610b569190611168565b6040516001600160f01b0319607084901b166020820152610b8b906030015b6040516020818303038152906040526000610d00565b610b9591906111a1565b610ba09060646111c2565b61ffff168252610bb36065610fc8611168565b60405160f083901b6001600160f01b0319166020820152610bd690603001610b75565b610be091906111a1565b610beb9060646111c2565b61ffff16602083015250919050565b606081610c1e5750506040805180820190915260018152600360fc1b602082015290565b8160005b8115610c485780610c328161103c565b9150610c419050600a836111e8565b9150610c22565b60008167ffffffffffffffff811115610c6357610c63610d94565b6040519080825280601f01601f191660200182016040528015610c8d576020820181803683370190505b5090505b8415610cf857610ca26001836110cc565b9150610caf600a866111fc565b610cba906030610fe0565b60f81b818381518110610ccf57610ccf6110e3565b60200101906001600160f81b031916908160001a905350610cf1600a866111e8565b9450610c91565b949350505050565b6000610d0d826002610fe0565b83511015610d545760405162461bcd60e51b8152602060048201526014602482015273746f55696e7431365f6f75744f66426f756e647360601b6044820152606401610287565b50016002015190565b60405180604001604052806002906020820280368337509192915050565b600060208284031215610d8d57600080fd5b5035919050565b634e487b7160e01b600052604160045260246000fd5b604051601f8201601f1916810167ffffffffffffffff81118282101715610dd357610dd3610d94565b604052919050565b600067ffffffffffffffff821115610df557610df5610d94565b5060051b60200190565b80356001600160a01b0381168114610e1657600080fd5b919050565b600082601f830112610e2c57600080fd5b81356020610e41610e3c83610ddb565b610daa565b82815260059290921b84018101918181019086841115610e6057600080fd5b8286015b84811015610e7b5780358352918301918301610e64565b509695505050505050565b60008060408385031215610e9957600080fd5b823567ffffffffffffffff80821115610eb157600080fd5b818501915085601f830112610ec557600080fd5b81356020610ed5610e3c83610ddb565b82815260059290921b84018101918181019089841115610ef457600080fd5b948201945b83861015610f1957610f0a86610dff565b82529482019490820190610ef9565b96505086013592505080821115610f2f57600080fd5b50610f3c85828601610e1b565b9150509250929050565b600060208284031215610f5857600080fd5b610f6182610dff565b9392505050565b634e487b7160e01b600052602160045260246000fd5b600060208284031215610f9057600080fd5b815160048110610f6157600080fd5b6020808252601190820152704e4f545f4d494e54494e475f504841534560781b604082015260600190565b634e487b7160e01b600052601160045260246000fd5b60008219821115610ff357610ff3610fca565b500190565b6020808252600b908201526a21a620a4a6afa2a92927a960a91b604082015260600190565b600081600019048311821515161561103757611037610fca565b500290565b600060001982141561105057611050610fca565b5060010190565b6001600160a01b038416815260208082018490526080820190604083018460005b600281101561109957815161ffff1683529183019190830190600101611078565b50505050949350505050565b6020808252600d908201526c1393d517d41154935255151151609a1b604082015260600190565b6000828210156110de576110de610fca565b500390565b634e487b7160e01b600052603260045260246000fd5b60008161110857611108610fca565b506000190190565b6000845160005b818110156111315760208188018101518583015201611117565b81811115611140576000828501525b50919091019283525060601b6bffffffffffffffffffffffff19166020820152603401919050565b600061ffff8381169083168181101561118357611183610fca565b039392505050565b634e487b7160e01b600052601260045260246000fd5b600061ffff808416806111b6576111b661118b565b92169190910692915050565b600061ffff8083168185168083038211156111df576111df610fca565b01949350505050565b6000826111f7576111f761118b565b500490565b60008261120b5761120b61118b565b50069056fea2646970667358221220102cadaf7aaff1271937792db7462140763deddaf7e02c270c7f13cd448c205464736f6c634300080a0033",
    "linkReferences": {}
  }
}