{
  "abi": [
    {
      "inputs": [],
      "stateMutability": "nonpayable",
      "type": "constructor"
    },
    {
      "anonymous": false,
      "inputs": [
        {
          "indexed": true,
          "internalType": "address",
          "name": "user",
          "type": "address"
        },
        {
          "indexed": true,
          "internalType": "contract Authority",
          "name": "newAuthority",
          "type": "address"
        }
      ],
      "name": "AuthorityUpdated",
      "type": "event"
    },
    {
      "anonymous": false,
      "inputs": [
        {
          "indexed": true,
          "internalType": "address",
          "name": "user",
          "type": "address"
        },
        {
          "indexed": true,
          "internalType": "address",
          "name": "newOwner",
          "type": "address"
        }
      ],
      "name": "OwnerUpdated",
      "type": "event"
    },
    {
      "inputs": [],
      "name": "authority",
      "outputs": [
        {
          "internalType": "contract Authority",
          "name": "",
          "type": "address"
        }
      ],
      "stateMutability": "view",
      "type": "function"
    },
    {
      "inputs": [],
      "name": "flipBool",
      "outputs": [],
      "stateMutability": "nonpayable",
      "type": "function"
    },
    {
      "inputs": [],
      "name": "flipBool2",
      "outputs": [],
      "stateMutability": "nonpayable",
      "type": "function"
    },
    {
      "inputs": [],
      "name": "owner",
      "outputs": [
        {
          "internalType": "address",
          "name": "",
          "type": "address"
        }
      ],
      "stateMutability": "view",
      "type": "function"
    },
    {
      "inputs": [
        {
          "internalType": "contract Authority",
          "name": "newAuthority",
          "type": "address"
        }
      ],
      "name": "setAuthority",
      "outputs": [],
      "stateMutability": "nonpayable",
      "type": "function"
    },
    {
      "inputs": [
        {
          "internalType": "address",
          "name": "newOwner",
          "type": "address"
        }
      ],
      "name": "setOwner",
      "outputs": [],
      "stateMutability": "nonpayable",
      "type": "function"
    },
    {
      "inputs": [],
      "name": "testBool",
      "outputs": [
        {
          "internalType": "bool",
          "name": "",
          "type": "bool"
        }
      ],
      "stateMutability": "view",
      "type": "function"
    },
    {
      "inputs": [],
      "name": "testBool2",
      "outputs": [
        {
          "internalType": "bool",
          "name": "",
          "type": "bool"
        }
      ],
      "stateMutability": "view",
      "type": "function"
    }
  ],
  "bytecode": {
    "object": "0x60806040526001805461ffff60a01b1916905534801561001e57600080fd5b5060008054336001600160a01b03199182168117835560018054909216909155604051909190829081907f8292fce18fa69edf4db7b94ea2e58241df0ae57f97e0a6c9b29067028bf92d76908490a36040516001600160a01b0382169033907fa3396fd7f6e0a21b50e5089d2da70d5ac0a3bbbd1f617a93f134b7638998019890600090a35050610511806100b46000396000f3fe608060405234801561001057600080fd5b50600436106100885760003560e01c80637a9e5e4b1161005b5780637a9e5e4b146100db5780638a4dee65146100ee5780638da5cb5b14610102578063bf7e214f1461012d57600080fd5b80630af8f5d71461008d57806313af40351461009757806336aacafa146100aa57806365047327146100d3575b600080fd5b610095610140565b005b6100956100a5366004610442565b6101b1565b6001546100be90600160a01b900460ff1681565b60405190151581526020015b60405180910390f35b61009561022e565b6100956100e9366004610442565b610296565b6001546100be90600160a81b900460ff1681565b600054610115906001600160a01b031681565b6040516001600160a01b0390911681526020016100ca565b600154610115906001600160a01b031681565b610156336000356001600160e01b031916610380565b61017b5760405162461bcd60e51b815260040161017290610466565b60405180910390fd5b600154600160a01b900460ff161561019c576001805460ff60a01b19169055565b6001805460ff60a01b1916600160a01b179055565b6101c7336000356001600160e01b031916610380565b6101e35760405162461bcd60e51b815260040161017290610466565b600080546001600160a01b0319166001600160a01b0383169081178255604051909133917f8292fce18fa69edf4db7b94ea2e58241df0ae57f97e0a6c9b29067028bf92d769190a350565b610244336000356001600160e01b031916610380565b6102605760405162461bcd60e51b815260040161017290610466565b600154600160a81b900460ff1615610281576001805460ff60a81b19169055565b6001805460ff60a81b1916600160a81b179055565b6000546001600160a01b031633148061032b575060015460405163b700961360e01b81526001600160a01b039091169063b7009613906102ea90339030906001600160e01b0319600035169060040161048c565b602060405180830381865afa158015610307573d6000803e3d6000fd5b505050506040513d601f19601f8201168201806040525081019061032b91906104b9565b61033457600080fd5b600180546001600160a01b0319166001600160a01b03831690811790915560405133907fa3396fd7f6e0a21b50e5089d2da70d5ac0a3bbbd1f617a93f134b7638998019890600090a350565b6001546000906001600160a01b0316801580159061040a575060405163b700961360e01b81526001600160a01b0382169063b7009613906103c99087903090889060040161048c565b602060405180830381865afa1580156103e6573d6000803e3d6000fd5b505050506040513d601f19601f8201168201806040525081019061040a91906104b9565b8061042257506000546001600160a01b038581169116145b949350505050565b6001600160a01b038116811461043f57600080fd5b50565b60006020828403121561045457600080fd5b813561045f8161042a565b9392505050565b6020808252600c908201526b15539055551213d49256915160a21b604082015260600190565b6001600160a01b0393841681529190921660208201526001600160e01b0319909116604082015260600190565b6000602082840312156104cb57600080fd5b8151801515811461045f57600080fdfea2646970667358221220dbd33a8d854ba6e03dd885bac327c822ef6c282cacc8c44cc9485630140157db64736f6c634300080a0033",
    "linkReferences": {}
  }
}