{
  "abi": [
    {
      "inputs": [],
      "stateMutability": "nonpayable",
      "type": "constructor"
    },
    {
      "anonymous": false,
      "inputs": [
        {
          "indexed": true,
          "internalType": "address",
          "name": "owner",
          "type": "address"
        },
        {
          "indexed": true,
          "internalType": "address",
          "name": "spender",
          "type": "address"
        },
        {
          "indexed": true,
          "internalType": "uint256",
          "name": "id",
          "type": "uint256"
        }
      ],
      "name": "Approval",
      "type": "event"
    },
    {
      "anonymous": false,
      "inputs": [
        {
          "indexed": true,
          "internalType": "address",
          "name": "owner",
          "type": "address"
        },
        {
          "indexed": true,
          "internalType": "address",
          "name": "operator",
          "type": "address"
        },
        {
          "indexed": false,
          "internalType": "bool",
          "name": "approved",
          "type": "bool"
        }
      ],
      "name": "ApprovalForAll",
      "type": "event"
    },
    {
      "anonymous": false,
      "inputs": [
        {
          "indexed": true,
          "internalType": "address",
          "name": "from",
          "type": "address"
        },
        {
          "indexed": true,
          "internalType": "address",
          "name": "to",
          "type": "address"
        },
        {
          "indexed": true,
          "internalType": "uint256",
          "name": "id",
          "type": "uint256"
        }
      ],
      "name": "Transfer",
      "type": "event"
    },
    {
      "inputs": [
        {
          "internalType": "address",
          "name": "spender",
          "type": "address"
        },
        {
          "internalType": "uint256",
          "name": "id",
          "type": "uint256"
        }
      ],
      "name": "approve",
      "outputs": [],
      "stateMutability": "nonpayable",
      "type": "function"
    },
    {
      "inputs": [
        {
          "internalType": "address",
          "name": "",
          "type": "address"
        }
      ],
      "name": "balanceOf",
      "outputs": [
        {
          "internalType": "uint256",
          "name": "",
          "type": "uint256"
        }
      ],
      "stateMutability": "view",
      "type": "function"
    },
    {
      "inputs": [
        {
          "internalType": "uint256",
          "name": "",
          "type": "uint256"
        }
      ],
      "name": "cellDataSet",
      "outputs": [
        {
          "internalType": "address",
          "name": "cellXYCoordinates",
          "type": "address"
        },
        {
          "internalType": "uint16",
          "name": "centreX",
          "type": "uint16"
        },
        {
          "internalType": "uint16",
          "name": "centreY",
          "type": "uint16"
        },
        {
          "components": [
            {
              "internalType": "bytes3",
              "name": "colourRGB",
              "type": "bytes3"
            },
            {
              "internalType": "uint16",
              "name": "viewBoxX",
              "type": "uint16"
            },
            {
              "internalType": "uint16",
              "name": "viewBoxY",
              "type": "uint16"
            },
            {
              "internalType": "uint16",
              "name": "viewBoxWidth",
              "type": "uint16"
            },
            {
              "internalType": "uint16",
              "name": "viewBoxHeight",
              "type": "uint16"
            }
          ],
          "internalType": "struct vrni.CellViewData",
          "name": "cellViewdata",
          "type": "tuple"
        },
        {
          "internalType": "address",
          "name": "cellPathdata",
          "type": "address"
        },
        {
          "components": [
            {
              "internalType": "uint16",
              "name": "population",
              "type": "uint16"
            },
            {
              "internalType": "uint16",
              "name": "altitude",
              "type": "uint16"
            },
            {
              "internalType": "uint8",
              "name": "climate",
              "type": "uint8"
            },
            {
              "internalType": "uint8",
              "name": "resources",
              "type": "uint8"
            },
            {
              "internalType": "uint8",
              "name": "language",
              "type": "uint8"
            },
            {
              "internalType": "uint8",
              "name": "development",
              "type": "uint8"
            },
            {
              "internalType": "uint8",
              "name": "industry",
              "type": "uint8"
            },
            {
              "internalType": "uint8",
              "name": "taxRate",
              "type": "uint8"
            },
            {
              "internalType": "uint8",
              "name": "government",
              "type": "uint8"
            }
          ],
          "internalType": "struct vrni.CellMetaData",
          "name": "cellMetadata",
          "type": "tuple"
        }
      ],
      "stateMutability": "view",
      "type": "function"
    },
    {
      "inputs": [
        {
          "internalType": "address",
          "name": "_to",
          "type": "address"
        },
        {
          "internalType": "uint256",
          "name": "_id",
          "type": "uint256"
        },
        {
          "internalType": "uint16[2]",
          "name": "xy",
          "type": "uint16[2]"
        }
      ],
      "name": "claim",
      "outputs": [],
      "stateMutability": "nonpayable",
      "type": "function"
    },
    {
      "inputs": [],
      "name": "claimContract",
      "outputs": [
        {
          "internalType": "address",
          "name": "",
          "type": "address"
        }
      ],
      "stateMutability": "view",
      "type": "function"
    },
    {
      "inputs": [],
      "name": "deployer",
      "outputs": [
        {
          "internalType": "address",
          "name": "",
          "type": "address"
        }
      ],
      "stateMutability": "view",
      "type": "function"
    },
    {
      "inputs": [
        {
          "internalType": "uint256",
          "name": "",
          "type": "uint256"
        }
      ],
      "name": "getApproved",
      "outputs": [
        {
          "internalType": "address",
          "name": "",
          "type": "address"
        }
      ],
      "stateMutability": "view",
      "type": "function"
    },
    {
      "inputs": [
        {
          "internalType": "uint256",
          "name": "id",
          "type": "uint256"
        }
      ],
      "name": "getCentre",
      "outputs": [
        {
          "internalType": "uint16",
          "name": "x",
          "type": "uint16"
        },
        {
          "internalType": "uint16",
          "name": "y",
          "type": "uint16"
        }
      ],
      "stateMutability": "view",
      "type": "function"
    },
    {
      "inputs": [
        {
          "internalType": "uint256",
          "name": "id",
          "type": "uint256"
        }
      ],
      "name": "getPathDataAddress",
      "outputs": [
        {
          "internalType": "address",
          "name": "",
          "type": "address"
        }
      ],
      "stateMutability": "view",
      "type": "function"
    },
    {
      "inputs": [
        {
          "internalType": "uint256",
          "name": "id",
          "type": "uint256"
        }
      ],
      "name": "getRawMetadata",
      "outputs": [
        {
          "components": [
            {
              "internalType": "uint16",
              "name": "population",
              "type": "uint16"
            },
            {
              "internalType": "uint16",
              "name": "altitude",
              "type": "uint16"
            },
            {
              "internalType": "uint8",
              "name": "climate",
              "type": "uint8"
            },
            {
              "internalType": "uint8",
              "name": "resources",
              "type": "uint8"
            },
            {
              "internalType": "uint8",
              "name": "language",
              "type": "uint8"
            },
            {
              "internalType": "uint8",
              "name": "development",
              "type": "uint8"
            },
            {
              "internalType": "uint8",
              "name": "industry",
              "type": "uint8"
            },
            {
              "internalType": "uint8",
              "name": "taxRate",
              "type": "uint8"
            },
            {
              "internalType": "uint8",
              "name": "government",
              "type": "uint8"
            }
          ],
          "internalType": "struct vrni.CellMetaData",
          "name": "",
          "type": "tuple"
        }
      ],
      "stateMutability": "view",
      "type": "function"
    },
    {
      "inputs": [
        {
          "internalType": "uint256",
          "name": "id",
          "type": "uint256"
        }
      ],
      "name": "getRawViewdata",
      "outputs": [
        {
          "components": [
            {
              "internalType": "bytes3",
              "name": "colourRGB",
              "type": "bytes3"
            },
            {
              "internalType": "uint16",
              "name": "viewBoxX",
              "type": "uint16"
            },
            {
              "internalType": "uint16",
              "name": "viewBoxY",
              "type": "uint16"
            },
            {
              "internalType": "uint16",
              "name": "viewBoxWidth",
              "type": "uint16"
            },
            {
              "internalType": "uint16",
              "name": "viewBoxHeight",
              "type": "uint16"
            }
          ],
          "internalType": "struct vrni.CellViewData",
          "name": "",
          "type": "tuple"
        }
      ],
      "stateMutability": "view",
      "type": "function"
    },
    {
      "inputs": [
        {
          "internalType": "uint256",
          "name": "id",
          "type": "uint256"
        }
      ],
      "name": "getXYCoordinatesAddress",
      "outputs": [
        {
          "internalType": "address",
          "name": "",
          "type": "address"
        }
      ],
      "stateMutability": "view",
      "type": "function"
    },
    {
      "inputs": [
        {
          "internalType": "address",
          "name": "",
          "type": "address"
        },
        {
          "internalType": "address",
          "name": "",
          "type": "address"
        }
      ],
      "name": "isApprovedForAll",
      "outputs": [
        {
          "internalType": "bool",
          "name": "",
          "type": "bool"
        }
      ],
      "stateMutability": "view",
      "type": "function"
    },
    {
      "inputs": [],
      "name": "name",
      "outputs": [
        {
          "internalType": "string",
          "name": "",
          "type": "string"
        }
      ],
      "stateMutability": "view",
      "type": "function"
    },
    {
      "inputs": [
        {
          "internalType": "uint256",
          "name": "",
          "type": "uint256"
        }
      ],
      "name": "ownerOf",
      "outputs": [
        {
          "internalType": "address",
          "name": "",
          "type": "address"
        }
      ],
      "stateMutability": "view",
      "type": "function"
    },
    {
      "inputs": [
        {
          "internalType": "address",
          "name": "from",
          "type": "address"
        },
        {
          "internalType": "address",
          "name": "to",
          "type": "address"
        },
        {
          "internalType": "uint256",
          "name": "id",
          "type": "uint256"
        }
      ],
      "name": "safeTransferFrom",
      "outputs": [],
      "stateMutability": "nonpayable",
      "type": "function"
    },
    {
      "inputs": [
        {
          "internalType": "address",
          "name": "from",
          "type": "address"
        },
        {
          "internalType": "address",
          "name": "to",
          "type": "address"
        },
        {
          "internalType": "uint256",
          "name": "id",
          "type": "uint256"
        },
        {
          "internalType": "bytes",
          "name": "data",
          "type": "bytes"
        }
      ],
      "name": "safeTransferFrom",
      "outputs": [],
      "stateMutability": "nonpayable",
      "type": "function"
    },
    {
      "inputs": [
        {
          "internalType": "address",
          "name": "operator",
          "type": "address"
        },
        {
          "internalType": "bool",
          "name": "approved",
          "type": "bool"
        }
      ],
      "name": "setApprovalForAll",
      "outputs": [],
      "stateMutability": "nonpayable",
      "type": "function"
    },
    {
      "inputs": [
        {
          "internalType": "address",
          "name": "newClaimer",
          "type": "address"
        }
      ],
      "name": "setClaimer",
      "outputs": [],
      "stateMutability": "nonpayable",
      "type": "function"
    },
    {
      "inputs": [
        {
          "internalType": "address",
          "name": "_newUriCoder",
          "type": "address"
        }
      ],
      "name": "setUriCoder",
      "outputs": [],
      "stateMutability": "nonpayable",
      "type": "function"
    },
    {
      "inputs": [
        {
          "internalType": "bytes4",
          "name": "interfaceId",
          "type": "bytes4"
        }
      ],
      "name": "supportsInterface",
      "outputs": [
        {
          "internalType": "bool",
          "name": "",
          "type": "bool"
        }
      ],
      "stateMutability": "view",
      "type": "function"
    },
    {
      "inputs": [],
      "name": "symbol",
      "outputs": [
        {
          "internalType": "string",
          "name": "",
          "type": "string"
        }
      ],
      "stateMutability": "view",
      "type": "function"
    },
    {
      "inputs": [
        {
          "internalType": "uint256",
          "name": "id",
          "type": "uint256"
        }
      ],
      "name": "tokenURI",
      "outputs": [
        {
          "internalType": "string",
          "name": "",
          "type": "string"
        }
      ],
      "stateMutability": "view",
      "type": "function"
    },
    {
      "inputs": [
        {
          "internalType": "address",
          "name": "from",
          "type": "address"
        },
        {
          "internalType": "address",
          "name": "to",
          "type": "address"
        },
        {
          "internalType": "uint256",
          "name": "id",
          "type": "uint256"
        }
      ],
      "name": "transferFrom",
      "outputs": [],
      "stateMutability": "nonpayable",
      "type": "function"
    }
  ],
  "bytecode": {
    "object": "0x608060405260016006553480156200001657600080fd5b5060408051808201825260088152671d9c9b9a4813919560c21b60208083019182528351808501909452600484526376726e6960e01b908401528151919291620000639160009162000094565b5080516200007990600190602084019062000094565b5050600a80546001600160a01b031916331790555062000177565b828054620000a2906200013a565b90600052602060002090601f016020900481019282620000c6576000855562000111565b82601f10620000e157805160ff191683800117855562000111565b8280016001018555821562000111579182015b8281111562000111578251825591602001919060010190620000f4565b506200011f92915062000123565b5090565b5b808211156200011f576000815560010162000124565b600181811c908216806200014f57607f821691505b602082108114156200017157634e487b7160e01b600052602260045260246000fd5b50919050565b61170580620001876000396000f3fe608060405234801561001057600080fd5b50600436106101585760003560e01c806395d89b41116100c3578063d5f394881161007c578063d5f3948814610488578063dca027221461049b578063e90cd858146104ae578063e985e9c5146104de578063ed8ce93c1461050c578063f3bcec9c1461052c57600080fd5b806395d89b4114610406578063a22cb4651461040e578063b88d4fde14610421578063c0f3761914610434578063c87b56dd14610462578063cdfb58321461047557600080fd5b806330a7c5c91161011557806330a7c5c9146103565780633d55ad9c1461037657806342842e0e146103895780636352211e1461039c57806366345da4146103c557806370a08231146103d857600080fd5b8063013210b81461015d57806301ffc9a7146102b557806306fdde03146102d8578063081812fc146102ed578063095ea7b31461032e57806323b872dd14610343575b600080fd5b61029a61016b3660046110a9565b600b602090815260009182526040918290208054835160a0808201865260018401546001600160e81b031960e882901b1683526301000000810461ffff90811684880152650100000000008083048216858a0152600160381b8084048316606080880191909152600160481b94859004841660808089019190915260028a01548c5161012081018e526003909b01548087168c5262010000810487169c8c019c909c5260ff6401000000008d0481169d8c019d909d52938b048c16918a019190915266010000000000008a048b16908901528804891693870193909352600160401b8704881660c0870152908604871660e0860152600160501b9095049095166101008401526001600160a01b0380831695600160a01b8404861695600160b01b909404909316939192169086565b6040516102ac969594939291906111a7565b60405180910390f35b6102c86102c3366004611213565b61053f565b60405190151581526020016102ac565b6102e0610591565b6040516102ac919061128f565b6103166102fb3660046110a9565b6004602052600090815260409020546001600160a01b031681565b6040516001600160a01b0390911681526020016102ac565b61034161033c3660046112be565b61061f565b005b6103416103513660046112e8565b610706565b6103696103643660046110a9565b6108cd565b6040516102ac9190611324565b6103416103843660046113a2565b6109a2565b6103416103973660046112e8565b610a45565b6103166103aa3660046110a9565b6003602052600090815260409020546001600160a01b031681565b600854610316906001600160a01b031681565b6103f86103e636600461142f565b60026020526000908152604090205481565b6040519081526020016102ac565b6102e0610b38565b61034161041c36600461144a565b610b45565b61034161042f3660046114ae565b610bb1565b6104476104423660046110a9565b610c96565b6040805161ffff9384168152929091166020830152016102ac565b6102e06104703660046110a9565b610cf6565b61034161048336600461142f565b610d68565b600a54610316906001600160a01b031681565b6103166104a93660046110a9565b610dd4565b6103416104bc36600461142f565b600780546001600160a01b0319166001600160a01b0392909216919091179055565b6102c86104ec366004611559565b600560209081526000928352604080842090915290825290205460ff1681565b61051f61051a3660046110a9565b610e27565b6040516102ac919061158c565b61031661053a3660046110a9565b610f4e565b60006301ffc9a760e01b6001600160e01b03198316148061057057506380ac58cd60e01b6001600160e01b03198316145b8061058b5750635b5e139f60e01b6001600160e01b03198316145b92915050565b6000805461059e9061159b565b80601f01602080910402602001604051908101604052809291908181526020018280546105ca9061159b565b80156106175780601f106105ec57610100808354040283529160200191610617565b820191906000526020600020905b8154815290600101906020018083116105fa57829003601f168201915b505050505081565b6000818152600360205260409020546001600160a01b03163381148061066857506001600160a01b038116600090815260056020908152604080832033845290915290205460ff165b6106aa5760405162461bcd60e51b815260206004820152600e60248201526d1393d517d055551213d49256915160921b60448201526064015b60405180910390fd5b60008281526004602052604080822080546001600160a01b0319166001600160a01b0387811691821790925591518593918516917f8c5be1e5ebec7d5bd14f71427d1e84f3dd0314c0f7b2291e5b200ac8c7c3b92591a4505050565b6000818152600360205260409020546001600160a01b0384811691161461075c5760405162461bcd60e51b815260206004820152600a60248201526957524f4e475f46524f4d60b01b60448201526064016106a1565b6001600160a01b0382166107a65760405162461bcd60e51b81526020600482015260116024820152701253959053125117d49150d25412515395607a1b60448201526064016106a1565b336001600160a01b03841614806107e057506001600160a01b038316600090815260056020908152604080832033845290915290205460ff165b8061080157506000818152600460205260409020546001600160a01b031633145b61083e5760405162461bcd60e51b815260206004820152600e60248201526d1393d517d055551213d49256915160921b60448201526064016106a1565b6001600160a01b0380841660008181526002602090815260408083208054600019019055938616808352848320805460010190558583526003825284832080546001600160a01b03199081168317909155600490925284832080549092169091559251849392917fddf252ad1be2c89b69c2b068fc378daa952ba7f163c4a11628f55a4df523b3ef91a4505050565b6040805160a0810182526000808252602082018190529181018290526060810182905260808101919091526000828152600360205260409020546001600160a01b031661092c5760405162461bcd60e51b81526004016106a1906115d6565b506000908152600b6020908152604091829020825160a0810184526001909101546001600160e81b031960e882901b16825261ffff63010000008204811693830193909352650100000000008104831693820193909352600160381b830482166060820152600160481b90920416608082015290565b6008546001600160a01b031633146109ec5760405162461bcd60e51b815260206004820152600d60248201526c1393d517d41154935255151151609a1b60448201526064016106a1565b80516000838152600b6020908152604090912080549184015163ffffffff60a01b1990921661ffff938416600160a01b0261ffff60b01b191617600160b01b9390921692909202179055610a408383610f9e565b505050565b610a50838383610706565b6001600160a01b0382163b1580610af95750604051630a85bd0160e11b8082523360048301526001600160a01b03858116602484015260448301849052608060648401526000608484015290919084169063150b7a029060a4016020604051808303816000875af1158015610ac9573d6000803e3d6000fd5b505050506040513d601f19601f82011682018060405250810190610aed91906115fe565b6001600160e01b031916145b610a405760405162461bcd60e51b815260206004820152601060248201526f155394d0519157d49150d2541251539560821b60448201526064016106a1565b6001805461059e9061159b565b3360008181526005602090815260408083206001600160a01b03871680855290835292819020805460ff191686151590811790915590519081529192917f17307eab39ab6107e8899845ad3d59bd9653f200f220920489ca2b5937696c31910160405180910390a35050565b610bbc848484610706565b6001600160a01b0383163b1580610c515750604051630a85bd0160e11b808252906001600160a01b0385169063150b7a0290610c0290339089908890889060040161161b565b6020604051808303816000875af1158015610c21573d6000803e3d6000fd5b505050506040513d601f19601f82011682018060405250810190610c4591906115fe565b6001600160e01b031916145b610c905760405162461bcd60e51b815260206004820152601060248201526f155394d0519157d49150d2541251539560821b60448201526064016106a1565b50505050565b60008181526003602052604081205481906001600160a01b0316610ccc5760405162461bcd60e51b81526004016106a1906115d6565b50506000908152600b602052604090205461ffff600160a01b8204811692600160b01b9092041690565b600754604051631b3820d360e21b8152600481018390526060916001600160a01b031690636ce0834c90602401600060405180830381865afa158015610d40573d6000803e3d6000fd5b505050506040513d6000823e601f3d908101601f1916820160405261058b9190810190611658565b600a546001600160a01b03163314610db25760405162461bcd60e51b815260206004820152600d60248201526c1393d517d41154935255151151609a1b60448201526064016106a1565b600880546001600160a01b0319166001600160a01b0392909216919091179055565b6000818152600360205260408120546001600160a01b0316610e085760405162461bcd60e51b81526004016106a1906115d6565b506000908152600b60205260409020600201546001600160a01b031690565b6040805161012081018252600080825260208201819052918101829052606081018290526080810182905260a0810182905260c0810182905260e081018290526101008101919091526000828152600360205260409020546001600160a01b0316610ea45760405162461bcd60e51b81526004016106a1906115d6565b506000908152600b602090815260409182902082516101208101845260039091015461ffff8082168352620100008204169282019290925260ff6401000000008304811693820193909352650100000000008204831660608201526601000000000000820483166080820152600160381b8204831660a0820152600160401b8204831660c0820152600160481b8204831660e0820152600160501b90910490911661010082015290565b6000818152600360205260408120546001600160a01b0316610f825760405162461bcd60e51b81526004016106a1906115d6565b506000908152600b60205260409020546001600160a01b031690565b6001600160a01b038216610fe85760405162461bcd60e51b81526020600482015260116024820152701253959053125117d49150d25412515395607a1b60448201526064016106a1565b6000818152600360205260409020546001600160a01b03161561103e5760405162461bcd60e51b815260206004820152600e60248201526d1053149150511657d3525395115160921b60448201526064016106a1565b6001600160a01b038216600081815260026020908152604080832080546001019055848352600390915280822080546001600160a01b0319168417905551839291907fddf252ad1be2c89b69c2b068fc378daa952ba7f163c4a11628f55a4df523b3ef908290a45050565b6000602082840312156110bb57600080fd5b5035919050565b80516001600160e81b031916825260208082015161ffff9081169184019190915260408083015182169084015260608083015182169084015260809182015116910152565b61ffff8082511683528060208301511660208401525060ff6040820151166040830152606081015161113e606084018260ff169052565b506080810151611153608084018260ff169052565b5060a081015161116860a084018260ff169052565b5060c081015161117d60c084018260ff169052565b5060e081015161119260e084018260ff169052565b506101008181015160ff811684830152610c90565b6001600160a01b03878116825261ffff8781166020840152861660408301526102408201906111d960608401876110c2565b84166101008301526111ef610120830184611107565b979650505050505050565b6001600160e01b03198116811461121057600080fd5b50565b60006020828403121561122557600080fd5b8135611230816111fa565b9392505050565b60005b8381101561125257818101518382015260200161123a565b83811115610c905750506000910152565b6000815180845261127b816020860160208601611237565b601f01601f19169290920160200192915050565b6020815260006112306020830184611263565b80356001600160a01b03811681146112b957600080fd5b919050565b600080604083850312156112d157600080fd5b6112da836112a2565b946020939093013593505050565b6000806000606084860312156112fd57600080fd5b611306846112a2565b9250611314602085016112a2565b9150604084013590509250925092565b60a0810161058b82846110c2565b634e487b7160e01b600052604160045260246000fd5b6040805190810167ffffffffffffffff8111828210171561136b5761136b611332565b60405290565b604051601f8201601f1916810167ffffffffffffffff8111828210171561139a5761139a611332565b604052919050565b6000806000608084860312156113b757600080fd5b6113c0846112a2565b9250602080850135925085605f8601126113d957600080fd5b6113e1611348565b8060808701888111156113f357600080fd5b604088015b8181101561142057803561ffff811681146114135760008081fd5b84529284019284016113f8565b50508093505050509250925092565b60006020828403121561144157600080fd5b611230826112a2565b6000806040838503121561145d57600080fd5b611466836112a2565b91506020830135801515811461147b57600080fd5b809150509250929050565b600067ffffffffffffffff8211156114a0576114a0611332565b50601f01601f191660200190565b600080600080608085870312156114c457600080fd5b6114cd856112a2565b93506114db602086016112a2565b925060408501359150606085013567ffffffffffffffff8111156114fe57600080fd5b8501601f8101871361150f57600080fd5b803561152261151d82611486565b611371565b81815288602083850101111561153757600080fd5b8160208401602083013760006020838301015280935050505092959194509250565b6000806040838503121561156c57600080fd5b611575836112a2565b9150611583602084016112a2565b90509250929050565b610120810161058b8284611107565b600181811c908216806115af57607f821691505b602082108114156115d057634e487b7160e01b600052602260045260246000fd5b50919050565b6020808252600e908201526d1393d391561254d510539517d25160921b604082015260600190565b60006020828403121561161057600080fd5b8151611230816111fa565b6001600160a01b038581168252841660208201526040810183905260806060820181905260009061164e90830184611263565b9695505050505050565b60006020828403121561166a57600080fd5b815167ffffffffffffffff81111561168157600080fd5b8201601f8101841361169257600080fd5b80516116a061151d82611486565b8181528560208385010111156116b557600080fd5b6116c6826020830160208601611237565b9594505050505056fea2646970667358221220ee314c63f0d88255c0921ffb4c030402cce16d1c1fb21af3aa5565346049711e64736f6c634300080a0033",
    "linkReferences": {}
  }
}