{
  "abi": [
    {
      "inputs": [],
      "stateMutability": "nonpayable",
      "type": "constructor"
    },
    {
      "anonymous": false,
      "inputs": [
        {
          "indexed": true,
          "internalType": "address",
          "name": "owner",
          "type": "address"
        },
        {
          "indexed": true,
          "internalType": "address",
          "name": "spender",
          "type": "address"
        },
        {
          "indexed": true,
          "internalType": "uint256",
          "name": "id",
          "type": "uint256"
        }
      ],
      "name": "Approval",
      "type": "event"
    },
    {
      "anonymous": false,
      "inputs": [
        {
          "indexed": true,
          "internalType": "address",
          "name": "owner",
          "type": "address"
        },
        {
          "indexed": true,
          "internalType": "address",
          "name": "operator",
          "type": "address"
        },
        {
          "indexed": false,
          "internalType": "bool",
          "name": "approved",
          "type": "bool"
        }
      ],
      "name": "ApprovalForAll",
      "type": "event"
    },
    {
      "anonymous": false,
      "inputs": [
        {
          "indexed": true,
          "internalType": "address",
          "name": "from",
          "type": "address"
        },
        {
          "indexed": true,
          "internalType": "address",
          "name": "to",
          "type": "address"
        },
        {
          "indexed": true,
          "internalType": "uint256",
          "name": "id",
          "type": "uint256"
        }
      ],
      "name": "Transfer",
      "type": "event"
    },
    {
      "inputs": [
        {
          "internalType": "address",
          "name": "spender",
          "type": "address"
        },
        {
          "internalType": "uint256",
          "name": "id",
          "type": "uint256"
        }
      ],
      "name": "approve",
      "outputs": [],
      "stateMutability": "nonpayable",
      "type": "function"
    },
    {
      "inputs": [
        {
          "internalType": "address",
          "name": "",
          "type": "address"
        }
      ],
      "name": "balanceOf",
      "outputs": [
        {
          "internalType": "uint256",
          "name": "",
          "type": "uint256"
        }
      ],
      "stateMutability": "view",
      "type": "function"
    },
    {
      "inputs": [
        {
          "internalType": "uint256",
          "name": "",
          "type": "uint256"
        }
      ],
      "name": "cellDataSet",
      "outputs": [
        {
          "internalType": "bytes32",
          "name": "tokenSeed",
          "type": "bytes32"
        },
        {
          "internalType": "address",
          "name": "cellXYCoordinates",
          "type": "address"
        },
        {
          "components": [
            {
              "internalType": "bytes3",
              "name": "colourRGB",
              "type": "bytes3"
            },
            {
              "internalType": "uint16",
              "name": "viewBoxX",
              "type": "uint16"
            },
            {
              "internalType": "uint16",
              "name": "viewBoxY",
              "type": "uint16"
            },
            {
              "internalType": "uint16",
              "name": "viewBoxWidth",
              "type": "uint16"
            },
            {
              "internalType": "uint16",
              "name": "viewBoxHeight",
              "type": "uint16"
            }
          ],
          "internalType": "struct vrni.CellViewData",
          "name": "cellViewdata",
          "type": "tuple"
        },
        {
          "internalType": "address",
          "name": "cellPathdata",
          "type": "address"
        },
        {
          "components": [
            {
              "internalType": "uint16",
              "name": "population",
              "type": "uint16"
            },
            {
              "internalType": "uint16",
              "name": "altitude",
              "type": "uint16"
            },
            {
              "internalType": "uint8",
              "name": "climate",
              "type": "uint8"
            },
            {
              "internalType": "uint8",
              "name": "resources",
              "type": "uint8"
            },
            {
              "internalType": "uint8",
              "name": "language",
              "type": "uint8"
            },
            {
              "internalType": "uint8",
              "name": "development",
              "type": "uint8"
            },
            {
              "internalType": "uint8",
              "name": "industry",
              "type": "uint8"
            },
            {
              "internalType": "uint8",
              "name": "taxRate",
              "type": "uint8"
            },
            {
              "internalType": "uint8",
              "name": "government",
              "type": "uint8"
            }
          ],
          "internalType": "struct vrni.CellMetaData",
          "name": "cellMetadata",
          "type": "tuple"
        }
      ],
      "stateMutability": "view",
      "type": "function"
    },
    {
      "inputs": [
        {
          "internalType": "address",
          "name": "_to",
          "type": "address"
        },
        {
          "internalType": "uint256",
          "name": "_id",
          "type": "uint256"
        },
        {
          "internalType": "bytes32",
          "name": "_seed",
          "type": "bytes32"
        }
      ],
      "name": "claim",
      "outputs": [],
      "stateMutability": "nonpayable",
      "type": "function"
    },
    {
      "inputs": [],
      "name": "claimContract",
      "outputs": [
        {
          "internalType": "address",
          "name": "",
          "type": "address"
        }
      ],
      "stateMutability": "view",
      "type": "function"
    },
    {
      "inputs": [
        {
          "internalType": "uint256",
          "name": "",
          "type": "uint256"
        }
      ],
      "name": "getApproved",
      "outputs": [
        {
          "internalType": "address",
          "name": "",
          "type": "address"
        }
      ],
      "stateMutability": "view",
      "type": "function"
    },
    {
      "inputs": [
        {
          "internalType": "uint256",
          "name": "id",
          "type": "uint256"
        }
      ],
      "name": "getPathDataAddress",
      "outputs": [
        {
          "internalType": "address",
          "name": "",
          "type": "address"
        }
      ],
      "stateMutability": "view",
      "type": "function"
    },
    {
      "inputs": [
        {
          "internalType": "uint256",
          "name": "id",
          "type": "uint256"
        }
      ],
      "name": "getRawMetadata",
      "outputs": [
        {
          "components": [
            {
              "internalType": "uint16",
              "name": "population",
              "type": "uint16"
            },
            {
              "internalType": "uint16",
              "name": "altitude",
              "type": "uint16"
            },
            {
              "internalType": "uint8",
              "name": "climate",
              "type": "uint8"
            },
            {
              "internalType": "uint8",
              "name": "resources",
              "type": "uint8"
            },
            {
              "internalType": "uint8",
              "name": "language",
              "type": "uint8"
            },
            {
              "internalType": "uint8",
              "name": "development",
              "type": "uint8"
            },
            {
              "internalType": "uint8",
              "name": "industry",
              "type": "uint8"
            },
            {
              "internalType": "uint8",
              "name": "taxRate",
              "type": "uint8"
            },
            {
              "internalType": "uint8",
              "name": "government",
              "type": "uint8"
            }
          ],
          "internalType": "struct vrni.CellMetaData",
          "name": "",
          "type": "tuple"
        }
      ],
      "stateMutability": "view",
      "type": "function"
    },
    {
      "inputs": [
        {
          "internalType": "uint256",
          "name": "id",
          "type": "uint256"
        }
      ],
      "name": "getRawViewdata",
      "outputs": [
        {
          "components": [
            {
              "internalType": "bytes3",
              "name": "colourRGB",
              "type": "bytes3"
            },
            {
              "internalType": "uint16",
              "name": "viewBoxX",
              "type": "uint16"
            },
            {
              "internalType": "uint16",
              "name": "viewBoxY",
              "type": "uint16"
            },
            {
              "internalType": "uint16",
              "name": "viewBoxWidth",
              "type": "uint16"
            },
            {
              "internalType": "uint16",
              "name": "viewBoxHeight",
              "type": "uint16"
            }
          ],
          "internalType": "struct vrni.CellViewData",
          "name": "",
          "type": "tuple"
        }
      ],
      "stateMutability": "view",
      "type": "function"
    },
    {
      "inputs": [
        {
          "internalType": "uint256",
          "name": "id",
          "type": "uint256"
        }
      ],
      "name": "getSeed",
      "outputs": [
        {
          "internalType": "bytes32",
          "name": "",
          "type": "bytes32"
        }
      ],
      "stateMutability": "view",
      "type": "function"
    },
    {
      "inputs": [
        {
          "internalType": "uint256",
          "name": "id",
          "type": "uint256"
        }
      ],
      "name": "getXYCoordinatesAddress",
      "outputs": [
        {
          "internalType": "address",
          "name": "",
          "type": "address"
        }
      ],
      "stateMutability": "view",
      "type": "function"
    },
    {
      "inputs": [],
      "name": "globalSeed",
      "outputs": [
        {
          "internalType": "uint256",
          "name": "",
          "type": "uint256"
        }
      ],
      "stateMutability": "view",
      "type": "function"
    },
    {
      "inputs": [
        {
          "internalType": "address",
          "name": "",
          "type": "address"
        },
        {
          "internalType": "address",
          "name": "",
          "type": "address"
        }
      ],
      "name": "isApprovedForAll",
      "outputs": [
        {
          "internalType": "bool",
          "name": "",
          "type": "bool"
        }
      ],
      "stateMutability": "view",
      "type": "function"
    },
    {
      "inputs": [],
      "name": "name",
      "outputs": [
        {
          "internalType": "string",
          "name": "",
          "type": "string"
        }
      ],
      "stateMutability": "view",
      "type": "function"
    },
    {
      "inputs": [],
      "name": "owner",
      "outputs": [
        {
          "internalType": "address",
          "name": "",
          "type": "address"
        }
      ],
      "stateMutability": "view",
      "type": "function"
    },
    {
      "inputs": [
        {
          "internalType": "uint256",
          "name": "",
          "type": "uint256"
        }
      ],
      "name": "ownerOf",
      "outputs": [
        {
          "internalType": "address",
          "name": "",
          "type": "address"
        }
      ],
      "stateMutability": "view",
      "type": "function"
    },
    {
      "inputs": [
        {
          "internalType": "address",
          "name": "from",
          "type": "address"
        },
        {
          "internalType": "address",
          "name": "to",
          "type": "address"
        },
        {
          "internalType": "uint256",
          "name": "id",
          "type": "uint256"
        }
      ],
      "name": "safeTransferFrom",
      "outputs": [],
      "stateMutability": "nonpayable",
      "type": "function"
    },
    {
      "inputs": [
        {
          "internalType": "address",
          "name": "from",
          "type": "address"
        },
        {
          "internalType": "address",
          "name": "to",
          "type": "address"
        },
        {
          "internalType": "uint256",
          "name": "id",
          "type": "uint256"
        },
        {
          "internalType": "bytes",
          "name": "data",
          "type": "bytes"
        }
      ],
      "name": "safeTransferFrom",
      "outputs": [],
      "stateMutability": "nonpayable",
      "type": "function"
    },
    {
      "inputs": [
        {
          "internalType": "address",
          "name": "operator",
          "type": "address"
        },
        {
          "internalType": "bool",
          "name": "approved",
          "type": "bool"
        }
      ],
      "name": "setApprovalForAll",
      "outputs": [],
      "stateMutability": "nonpayable",
      "type": "function"
    },
    {
      "inputs": [
        {
          "internalType": "address",
          "name": "newClaimer",
          "type": "address"
        }
      ],
      "name": "setClaimer",
      "outputs": [],
      "stateMutability": "nonpayable",
      "type": "function"
    },
    {
      "inputs": [
        {
          "internalType": "uint256",
          "name": "_globalSeed",
          "type": "uint256"
        }
      ],
      "name": "setGlobalSeed",
      "outputs": [],
      "stateMutability": "nonpayable",
      "type": "function"
    },
    {
      "inputs": [
        {
          "internalType": "address",
          "name": "_newUriCoder",
          "type": "address"
        }
      ],
      "name": "setUriCoder",
      "outputs": [],
      "stateMutability": "nonpayable",
      "type": "function"
    },
    {
      "inputs": [
        {
          "internalType": "bytes4",
          "name": "interfaceId",
          "type": "bytes4"
        }
      ],
      "name": "supportsInterface",
      "outputs": [
        {
          "internalType": "bool",
          "name": "",
          "type": "bool"
        }
      ],
      "stateMutability": "view",
      "type": "function"
    },
    {
      "inputs": [],
      "name": "symbol",
      "outputs": [
        {
          "internalType": "string",
          "name": "",
          "type": "string"
        }
      ],
      "stateMutability": "view",
      "type": "function"
    },
    {
      "inputs": [
        {
          "internalType": "uint256",
          "name": "id",
          "type": "uint256"
        }
      ],
      "name": "tokenURI",
      "outputs": [
        {
          "internalType": "string",
          "name": "",
          "type": "string"
        }
      ],
      "stateMutability": "view",
      "type": "function"
    },
    {
      "inputs": [
        {
          "internalType": "address",
          "name": "from",
          "type": "address"
        },
        {
          "internalType": "address",
          "name": "to",
          "type": "address"
        },
        {
          "internalType": "uint256",
          "name": "id",
          "type": "uint256"
        }
      ],
      "name": "transferFrom",
      "outputs": [],
      "stateMutability": "nonpayable",
      "type": "function"
    }
  ],
  "bytecode": {
    "object": "0x608060405260016006553480156200001657600080fd5b5060408051808201825260088152671d9c9b9a4813919560c21b60208083019182528351808501909452600484526376726e6960e01b908401528151919291620000639160009162000094565b5080516200007990600190602084019062000094565b5050600a80546001600160a01b031916331790555062000177565b828054620000a2906200013a565b90600052602060002090601f016020900481019282620000c6576000855562000111565b82601f10620000e157805160ff191683800117855562000111565b8280016001018555821562000111579182015b8281111562000111578251825591602001919060010190620000f4565b506200011f92915062000123565b5090565b5b808211156200011f576000815560010162000124565b600181811c908216806200014f57607f821691505b602082108114156200017157634e487b7160e01b600052602260045260246000fd5b50919050565b61166780620001876000396000f3fe608060405234801561001057600080fd5b506004361061018e5760003560e01c80638da5cb5b116100de578063d417f77111610097578063e90cd85811610071578063e90cd858146104d4578063e985e9c514610504578063ed8ce93c14610532578063f3bcec9c1461055257600080fd5b8063d417f7711461049b578063dca02722146104ae578063e0d4ea37146104c157600080fd5b80638da5cb5b1461043457806395d89b4114610447578063a22cb4651461044f578063b88d4fde14610462578063c87b56dd14610475578063cdfb58321461048857600080fd5b8063095ea7b31161014b57806342842e0e1161012557806342842e0e146103c55780636352211e146103d857806366345da41461040157806370a082311461041457600080fd5b8063095ea7b31461037f57806323b872dd1461039257806330a7c5c9146103a557600080fd5b8063013210b81461019357806301ffc9a7146102da57806302aff378146102fd57806306fdde031461031257806307aafa9814610327578063081812fc1461033e575b600080fd5b6102c06101a136600461107f565b600b6020908152600091825260409182902080546001820154845160a0808201875260028501546001600160e81b031960e882901b16835261ffff63010000008204811684890152650100000000008083048216858b0152600160381b8084048316606080880191909152600160481b94859004841660808089019190915260038b01548d5161012081018f526004909c01548087168d526201000081049096169c8c019c909c5260ff640100000000860481169d8c019d909d529284048c16908a0152660100000000000083048b16918901919091528104891692870192909252600160401b8204881660c08701528104871660e0860152600160501b900490951661010084015290936001600160a01b0391821693909291169085565b6040516102d195949392919061117d565b60405180910390f35b6102ed6102e83660046111db565b610565565b60405190151581526020016102d1565b61031061030b36600461107f565b6105b7565b005b61031a6105fb565b6040516102d19190611257565b610330600c5481565b6040519081526020016102d1565b61036761034c36600461107f565b6004602052600090815260409020546001600160a01b031681565b6040516001600160a01b0390911681526020016102d1565b61031061038d366004611286565b610689565b6103106103a03660046112b0565b61076b565b6103b86103b336600461107f565b610932565b6040516102d191906112ec565b6103106103d33660046112b0565b610a07565b6103676103e636600461107f565b6003602052600090815260409020546001600160a01b031681565b600854610367906001600160a01b031681565b6103306104223660046112fa565b60026020526000908152604090205481565b600a54610367906001600160a01b031681565b61031a610aff565b61031061045d366004611315565b610b0c565b6103106104703660046113c0565b610b78565b61031a61048336600461107f565b610c5d565b6103106104963660046112fa565b610ccf565b6103106104a936600461146b565b610d1b565b6103676104bc36600461107f565b610d60565b6103306104cf36600461107f565b610db3565b6103106104e23660046112fa565b600780546001600160a01b0319166001600160a01b0392909216919091179055565b6102ed61051236600461149e565b600560209081526000928352604080842090915290825290205460ff1681565b61054561054036600461107f565b610dfa565b6040516102d191906114d1565b61036761056036600461107f565b610f21565b60006301ffc9a760e01b6001600160e01b03198316148061059657506380ac58cd60e01b6001600160e01b03198316145b806105b15750635b5e139f60e01b6001600160e01b03198316145b92915050565b6008546001600160a01b0316331480156105d15750600c54155b6105f65760405162461bcd60e51b81526004016105ed906114e0565b60405180910390fd5b600c55565b6000805461060890611507565b80601f016020809104026020016040519081016040528092919081815260200182805461063490611507565b80156106815780601f1061065657610100808354040283529160200191610681565b820191906000526020600020905b81548152906001019060200180831161066457829003601f168201915b505050505081565b6000818152600360205260409020546001600160a01b0316338114806106d257506001600160a01b038116600090815260056020908152604080832033845290915290205460ff165b61070f5760405162461bcd60e51b815260206004820152600e60248201526d1393d517d055551213d49256915160921b60448201526064016105ed565b60008281526004602052604080822080546001600160a01b0319166001600160a01b0387811691821790925591518593918516917f8c5be1e5ebec7d5bd14f71427d1e84f3dd0314c0f7b2291e5b200ac8c7c3b92591a4505050565b6000818152600360205260409020546001600160a01b038481169116146107c15760405162461bcd60e51b815260206004820152600a60248201526957524f4e475f46524f4d60b01b60448201526064016105ed565b6001600160a01b03821661080b5760405162461bcd60e51b81526020600482015260116024820152701253959053125117d49150d25412515395607a1b60448201526064016105ed565b336001600160a01b038416148061084557506001600160a01b038316600090815260056020908152604080832033845290915290205460ff165b8061086657506000818152600460205260409020546001600160a01b031633145b6108a35760405162461bcd60e51b815260206004820152600e60248201526d1393d517d055551213d49256915160921b60448201526064016105ed565b6001600160a01b0380841660008181526002602090815260408083208054600019019055938616808352848320805460010190558583526003825284832080546001600160a01b03199081168317909155600490925284832080549092169091559251849392917fddf252ad1be2c89b69c2b068fc378daa952ba7f163c4a11628f55a4df523b3ef91a4505050565b6040805160a0810182526000808252602082018190529181018290526060810182905260808101919091526000828152600360205260409020546001600160a01b03166109915760405162461bcd60e51b81526004016105ed90611542565b506000908152600b6020908152604091829020825160a0810184526002909101546001600160e81b031960e882901b16825261ffff63010000008204811693830193909352650100000000008104831693820193909352600160381b830482166060820152600160481b90920416608082015290565b610a1283838361076b565b6001600160a01b0382163b1580610abb5750604051630a85bd0160e11b8082523360048301526001600160a01b03858116602484015260448301849052608060648401526000608484015290919084169063150b7a029060a4016020604051808303816000875af1158015610a8b573d6000803e3d6000fd5b505050506040513d601f19601f82011682018060405250810190610aaf919061156a565b6001600160e01b031916145b610afa5760405162461bcd60e51b815260206004820152601060248201526f155394d0519157d49150d2541251539560821b60448201526064016105ed565b505050565b6001805461060890611507565b3360008181526005602090815260408083206001600160a01b03871680855290835292819020805460ff191686151590811790915590519081529192917f17307eab39ab6107e8899845ad3d59bd9653f200f220920489ca2b5937696c31910160405180910390a35050565b610b8384848461076b565b6001600160a01b0383163b1580610c185750604051630a85bd0160e11b808252906001600160a01b0385169063150b7a0290610bc9903390899088908890600401611587565b6020604051808303816000875af1158015610be8573d6000803e3d6000fd5b505050506040513d601f19601f82011682018060405250810190610c0c919061156a565b6001600160e01b031916145b610c575760405162461bcd60e51b815260206004820152601060248201526f155394d0519157d49150d2541251539560821b60448201526064016105ed565b50505050565b600754604051631b3820d360e21b8152600481018390526060916001600160a01b031690636ce0834c90602401600060405180830381865afa158015610ca7573d6000803e3d6000fd5b505050506040513d6000823e601f3d908101601f191682016040526105b191908101906115ba565b600a546001600160a01b03163314610cf95760405162461bcd60e51b81526004016105ed906114e0565b600880546001600160a01b0319166001600160a01b0392909216919091179055565b6008546001600160a01b03163314610d455760405162461bcd60e51b81526004016105ed906114e0565b6000828152600b60205260409020819055610afa8383610f74565b6000818152600360205260408120546001600160a01b0316610d945760405162461bcd60e51b81526004016105ed90611542565b506000908152600b60205260409020600301546001600160a01b031690565b6000818152600360205260408120546001600160a01b0316610de75760405162461bcd60e51b81526004016105ed90611542565b506000908152600b602052604090205490565b6040805161012081018252600080825260208201819052918101829052606081018290526080810182905260a0810182905260c0810182905260e081018290526101008101919091526000828152600360205260409020546001600160a01b0316610e775760405162461bcd60e51b81526004016105ed90611542565b506000908152600b602090815260409182902082516101208101845260049091015461ffff8082168352620100008204169282019290925260ff6401000000008304811693820193909352650100000000008204831660608201526601000000000000820483166080820152600160381b8204831660a0820152600160401b8204831660c0820152600160481b8204831660e0820152600160501b90910490911661010082015290565b6000818152600360205260408120546001600160a01b0316610f555760405162461bcd60e51b81526004016105ed90611542565b506000908152600b60205260409020600101546001600160a01b031690565b6001600160a01b038216610fbe5760405162461bcd60e51b81526020600482015260116024820152701253959053125117d49150d25412515395607a1b60448201526064016105ed565b6000818152600360205260409020546001600160a01b0316156110145760405162461bcd60e51b815260206004820152600e60248201526d1053149150511657d3525395115160921b60448201526064016105ed565b6001600160a01b038216600081815260026020908152604080832080546001019055848352600390915280822080546001600160a01b0319168417905551839291907fddf252ad1be2c89b69c2b068fc378daa952ba7f163c4a11628f55a4df523b3ef908290a45050565b60006020828403121561109157600080fd5b5035919050565b80516001600160e81b031916825260208082015161ffff9081169184019190915260408083015182169084015260608083015182169084015260809182015116910152565b61ffff8082511683528060208301511660208401525060ff60408201511660408301526060810151611114606084018260ff169052565b506080810151611129608084018260ff169052565b5060a081015161113e60a084018260ff169052565b5060c081015161115360c084018260ff169052565b5060e081015161116860e084018260ff169052565b506101008181015160ff811684830152610c57565b8581526001600160a01b0385811660208301526102208201906111a36040840187611098565b841660e08301526111b86101008301846110dd565b9695505050505050565b6001600160e01b0319811681146111d857600080fd5b50565b6000602082840312156111ed57600080fd5b81356111f8816111c2565b9392505050565b60005b8381101561121a578181015183820152602001611202565b83811115610c575750506000910152565b600081518084526112438160208601602086016111ff565b601f01601f19169290920160200192915050565b6020815260006111f8602083018461122b565b80356001600160a01b038116811461128157600080fd5b919050565b6000806040838503121561129957600080fd5b6112a28361126a565b946020939093013593505050565b6000806000606084860312156112c557600080fd5b6112ce8461126a565b92506112dc6020850161126a565b9150604084013590509250925092565b60a081016105b18284611098565b60006020828403121561130c57600080fd5b6111f88261126a565b6000806040838503121561132857600080fd5b6113318361126a565b91506020830135801515811461134657600080fd5b809150509250929050565b634e487b7160e01b600052604160045260246000fd5b604051601f8201601f1916810167ffffffffffffffff8111828210171561139057611390611351565b604052919050565b600067ffffffffffffffff8211156113b2576113b2611351565b50601f01601f191660200190565b600080600080608085870312156113d657600080fd5b6113df8561126a565b93506113ed6020860161126a565b925060408501359150606085013567ffffffffffffffff81111561141057600080fd5b8501601f8101871361142157600080fd5b803561143461142f82611398565b611367565b81815288602083850101111561144957600080fd5b8160208401602083013760006020838301015280935050505092959194509250565b60008060006060848603121561148057600080fd5b6114898461126a565b95602085013595506040909401359392505050565b600080604083850312156114b157600080fd5b6114ba8361126a565b91506114c86020840161126a565b90509250929050565b61012081016105b182846110dd565b6020808252600d908201526c1393d517d41154935255151151609a1b604082015260600190565b600181811c9082168061151b57607f821691505b6020821081141561153c57634e487b7160e01b600052602260045260246000fd5b50919050565b6020808252600e908201526d1393d391561254d510539517d25160921b604082015260600190565b60006020828403121561157c57600080fd5b81516111f8816111c2565b6001600160a01b03858116825284166020820152604081018390526080606082018190526000906111b89083018461122b565b6000602082840312156115cc57600080fd5b815167ffffffffffffffff8111156115e357600080fd5b8201601f810184136115f457600080fd5b805161160261142f82611398565b81815285602083850101111561161757600080fd5b6116288260208301602086016111ff565b9594505050505056fea2646970667358221220d12db74ddcea768e685a147105f7767a705ad065df47f02b48f042a871d6eef264736f6c634300080a0033",
    "linkReferences": {}
  }
}