{
  "abi": [
    {
      "inputs": [],
      "stateMutability": "nonpayable",
      "type": "constructor"
    },
    {
      "anonymous": false,
      "inputs": [
        {
          "indexed": true,
          "internalType": "address",
          "name": "owner",
          "type": "address"
        },
        {
          "indexed": true,
          "internalType": "address",
          "name": "spender",
          "type": "address"
        },
        {
          "indexed": true,
          "internalType": "uint256",
          "name": "id",
          "type": "uint256"
        }
      ],
      "name": "Approval",
      "type": "event"
    },
    {
      "anonymous": false,
      "inputs": [
        {
          "indexed": true,
          "internalType": "address",
          "name": "owner",
          "type": "address"
        },
        {
          "indexed": true,
          "internalType": "address",
          "name": "operator",
          "type": "address"
        },
        {
          "indexed": false,
          "internalType": "bool",
          "name": "approved",
          "type": "bool"
        }
      ],
      "name": "ApprovalForAll",
      "type": "event"
    },
    {
      "anonymous": false,
      "inputs": [
        {
          "indexed": true,
          "internalType": "address",
          "name": "from",
          "type": "address"
        },
        {
          "indexed": true,
          "internalType": "address",
          "name": "to",
          "type": "address"
        },
        {
          "indexed": true,
          "internalType": "uint256",
          "name": "id",
          "type": "uint256"
        }
      ],
      "name": "Transfer",
      "type": "event"
    },
    {
      "inputs": [
        {
          "internalType": "address",
          "name": "spender",
          "type": "address"
        },
        {
          "internalType": "uint256",
          "name": "id",
          "type": "uint256"
        }
      ],
      "name": "approve",
      "outputs": [],
      "stateMutability": "nonpayable",
      "type": "function"
    },
    {
      "inputs": [
        {
          "internalType": "address",
          "name": "",
          "type": "address"
        }
      ],
      "name": "balanceOf",
      "outputs": [
        {
          "internalType": "uint256",
          "name": "",
          "type": "uint256"
        }
      ],
      "stateMutability": "view",
      "type": "function"
    },
    {
      "inputs": [
        {
          "internalType": "uint256",
          "name": "",
          "type": "uint256"
        }
      ],
      "name": "cellDataSet",
      "outputs": [
        {
          "internalType": "address",
          "name": "cellXYCoordinates",
          "type": "address"
        },
        {
          "internalType": "uint16",
          "name": "centreX",
          "type": "uint16"
        },
        {
          "internalType": "uint16",
          "name": "centreY",
          "type": "uint16"
        },
        {
          "components": [
            {
              "internalType": "bytes3",
              "name": "colourRGB",
              "type": "bytes3"
            },
            {
              "internalType": "uint16",
              "name": "viewBoxX",
              "type": "uint16"
            },
            {
              "internalType": "uint16",
              "name": "viewBoxY",
              "type": "uint16"
            },
            {
              "internalType": "uint16",
              "name": "viewBoxWidth",
              "type": "uint16"
            },
            {
              "internalType": "uint16",
              "name": "viewBoxHeight",
              "type": "uint16"
            }
          ],
          "internalType": "struct vrni.CellViewData",
          "name": "cellViewdata",
          "type": "tuple"
        },
        {
          "internalType": "address",
          "name": "cellPathdata",
          "type": "address"
        },
        {
          "components": [
            {
              "internalType": "uint16",
              "name": "population",
              "type": "uint16"
            },
            {
              "internalType": "uint16",
              "name": "altitude",
              "type": "uint16"
            },
            {
              "internalType": "uint8",
              "name": "climate",
              "type": "uint8"
            },
            {
              "internalType": "uint8",
              "name": "resources",
              "type": "uint8"
            },
            {
              "internalType": "uint8",
              "name": "language",
              "type": "uint8"
            },
            {
              "internalType": "uint8",
              "name": "development",
              "type": "uint8"
            },
            {
              "internalType": "uint8",
              "name": "industry",
              "type": "uint8"
            },
            {
              "internalType": "uint8",
              "name": "taxRate",
              "type": "uint8"
            },
            {
              "internalType": "uint8",
              "name": "government",
              "type": "uint8"
            }
          ],
          "internalType": "struct vrni.CellMetaData",
          "name": "cellMetadata",
          "type": "tuple"
        }
      ],
      "stateMutability": "view",
      "type": "function"
    },
    {
      "inputs": [
        {
          "components": [
            {
              "internalType": "address",
              "name": "cellXYCoordinates",
              "type": "address"
            },
            {
              "internalType": "uint16",
              "name": "centreX",
              "type": "uint16"
            },
            {
              "internalType": "uint16",
              "name": "centreY",
              "type": "uint16"
            },
            {
              "components": [
                {
                  "internalType": "bytes3",
                  "name": "colourRGB",
                  "type": "bytes3"
                },
                {
                  "internalType": "uint16",
                  "name": "viewBoxX",
                  "type": "uint16"
                },
                {
                  "internalType": "uint16",
                  "name": "viewBoxY",
                  "type": "uint16"
                },
                {
                  "internalType": "uint16",
                  "name": "viewBoxWidth",
                  "type": "uint16"
                },
                {
                  "internalType": "uint16",
                  "name": "viewBoxHeight",
                  "type": "uint16"
                }
              ],
              "internalType": "struct vrni.CellViewData",
              "name": "cellViewdata",
              "type": "tuple"
            },
            {
              "internalType": "address",
              "name": "cellPathdata",
              "type": "address"
            },
            {
              "components": [
                {
                  "internalType": "uint16",
                  "name": "population",
                  "type": "uint16"
                },
                {
                  "internalType": "uint16",
                  "name": "altitude",
                  "type": "uint16"
                },
                {
                  "internalType": "uint8",
                  "name": "climate",
                  "type": "uint8"
                },
                {
                  "internalType": "uint8",
                  "name": "resources",
                  "type": "uint8"
                },
                {
                  "internalType": "uint8",
                  "name": "language",
                  "type": "uint8"
                },
                {
                  "internalType": "uint8",
                  "name": "development",
                  "type": "uint8"
                },
                {
                  "internalType": "uint8",
                  "name": "industry",
                  "type": "uint8"
                },
                {
                  "internalType": "uint8",
                  "name": "taxRate",
                  "type": "uint8"
                },
                {
                  "internalType": "uint8",
                  "name": "government",
                  "type": "uint8"
                }
              ],
              "internalType": "struct vrni.CellMetaData",
              "name": "cellMetadata",
              "type": "tuple"
            }
          ],
          "internalType": "struct vrni.CellData[]",
          "name": "testData",
          "type": "tuple[]"
        }
      ],
      "name": "checkRevealDataHash",
      "outputs": [
        {
          "internalType": "bytes32[]",
          "name": "hashedData",
          "type": "bytes32[]"
        }
      ],
      "stateMutability": "pure",
      "type": "function"
    },
    {
      "inputs": [
        {
          "components": [
            {
              "internalType": "address",
              "name": "cellXYCoordinates",
              "type": "address"
            },
            {
              "internalType": "uint16",
              "name": "centreX",
              "type": "uint16"
            },
            {
              "internalType": "uint16",
              "name": "centreY",
              "type": "uint16"
            },
            {
              "components": [
                {
                  "internalType": "bytes3",
                  "name": "colourRGB",
                  "type": "bytes3"
                },
                {
                  "internalType": "uint16",
                  "name": "viewBoxX",
                  "type": "uint16"
                },
                {
                  "internalType": "uint16",
                  "name": "viewBoxY",
                  "type": "uint16"
                },
                {
                  "internalType": "uint16",
                  "name": "viewBoxWidth",
                  "type": "uint16"
                },
                {
                  "internalType": "uint16",
                  "name": "viewBoxHeight",
                  "type": "uint16"
                }
              ],
              "internalType": "struct vrni.CellViewData",
              "name": "cellViewdata",
              "type": "tuple"
            },
            {
              "internalType": "address",
              "name": "cellPathdata",
              "type": "address"
            },
            {
              "components": [
                {
                  "internalType": "uint16",
                  "name": "population",
                  "type": "uint16"
                },
                {
                  "internalType": "uint16",
                  "name": "altitude",
                  "type": "uint16"
                },
                {
                  "internalType": "uint8",
                  "name": "climate",
                  "type": "uint8"
                },
                {
                  "internalType": "uint8",
                  "name": "resources",
                  "type": "uint8"
                },
                {
                  "internalType": "uint8",
                  "name": "language",
                  "type": "uint8"
                },
                {
                  "internalType": "uint8",
                  "name": "development",
                  "type": "uint8"
                },
                {
                  "internalType": "uint8",
                  "name": "industry",
                  "type": "uint8"
                },
                {
                  "internalType": "uint8",
                  "name": "taxRate",
                  "type": "uint8"
                },
                {
                  "internalType": "uint8",
                  "name": "government",
                  "type": "uint8"
                }
              ],
              "internalType": "struct vrni.CellMetaData",
              "name": "cellMetadata",
              "type": "tuple"
            }
          ],
          "internalType": "struct vrni.CellData",
          "name": "testData",
          "type": "tuple"
        }
      ],
      "name": "checkRevealDataHash",
      "outputs": [
        {
          "internalType": "bytes32",
          "name": "hashedData",
          "type": "bytes32"
        }
      ],
      "stateMutability": "pure",
      "type": "function"
    },
    {
      "inputs": [
        {
          "internalType": "address",
          "name": "_to",
          "type": "address"
        },
        {
          "internalType": "uint256",
          "name": "_id",
          "type": "uint256"
        },
        {
          "internalType": "uint16[2]",
          "name": "xy",
          "type": "uint16[2]"
        }
      ],
      "name": "claim",
      "outputs": [],
      "stateMutability": "nonpayable",
      "type": "function"
    },
    {
      "inputs": [],
      "name": "claimContract",
      "outputs": [
        {
          "internalType": "address",
          "name": "",
          "type": "address"
        }
      ],
      "stateMutability": "view",
      "type": "function"
    },
    {
      "inputs": [],
      "name": "dataManager",
      "outputs": [
        {
          "internalType": "address",
          "name": "",
          "type": "address"
        }
      ],
      "stateMutability": "view",
      "type": "function"
    },
    {
      "inputs": [],
      "name": "deployer",
      "outputs": [
        {
          "internalType": "address",
          "name": "",
          "type": "address"
        }
      ],
      "stateMutability": "view",
      "type": "function"
    },
    {
      "inputs": [
        {
          "internalType": "uint256",
          "name": "",
          "type": "uint256"
        }
      ],
      "name": "getApproved",
      "outputs": [
        {
          "internalType": "address",
          "name": "",
          "type": "address"
        }
      ],
      "stateMutability": "view",
      "type": "function"
    },
    {
      "inputs": [
        {
          "internalType": "uint256",
          "name": "id",
          "type": "uint256"
        }
      ],
      "name": "getCentre",
      "outputs": [
        {
          "internalType": "uint16",
          "name": "x",
          "type": "uint16"
        },
        {
          "internalType": "uint16",
          "name": "y",
          "type": "uint16"
        }
      ],
      "stateMutability": "view",
      "type": "function"
    },
    {
      "inputs": [
        {
          "internalType": "uint256",
          "name": "id",
          "type": "uint256"
        }
      ],
      "name": "getPathDataAddress",
      "outputs": [
        {
          "internalType": "address",
          "name": "",
          "type": "address"
        }
      ],
      "stateMutability": "view",
      "type": "function"
    },
    {
      "inputs": [
        {
          "internalType": "uint256",
          "name": "id",
          "type": "uint256"
        }
      ],
      "name": "getRawCellData",
      "outputs": [
        {
          "components": [
            {
              "internalType": "address",
              "name": "cellXYCoordinates",
              "type": "address"
            },
            {
              "internalType": "uint16",
              "name": "centreX",
              "type": "uint16"
            },
            {
              "internalType": "uint16",
              "name": "centreY",
              "type": "uint16"
            },
            {
              "components": [
                {
                  "internalType": "bytes3",
                  "name": "colourRGB",
                  "type": "bytes3"
                },
                {
                  "internalType": "uint16",
                  "name": "viewBoxX",
                  "type": "uint16"
                },
                {
                  "internalType": "uint16",
                  "name": "viewBoxY",
                  "type": "uint16"
                },
                {
                  "internalType": "uint16",
                  "name": "viewBoxWidth",
                  "type": "uint16"
                },
                {
                  "internalType": "uint16",
                  "name": "viewBoxHeight",
                  "type": "uint16"
                }
              ],
              "internalType": "struct vrni.CellViewData",
              "name": "cellViewdata",
              "type": "tuple"
            },
            {
              "internalType": "address",
              "name": "cellPathdata",
              "type": "address"
            },
            {
              "components": [
                {
                  "internalType": "uint16",
                  "name": "population",
                  "type": "uint16"
                },
                {
                  "internalType": "uint16",
                  "name": "altitude",
                  "type": "uint16"
                },
                {
                  "internalType": "uint8",
                  "name": "climate",
                  "type": "uint8"
                },
                {
                  "internalType": "uint8",
                  "name": "resources",
                  "type": "uint8"
                },
                {
                  "internalType": "uint8",
                  "name": "language",
                  "type": "uint8"
                },
                {
                  "internalType": "uint8",
                  "name": "development",
                  "type": "uint8"
                },
                {
                  "internalType": "uint8",
                  "name": "industry",
                  "type": "uint8"
                },
                {
                  "internalType": "uint8",
                  "name": "taxRate",
                  "type": "uint8"
                },
                {
                  "internalType": "uint8",
                  "name": "government",
                  "type": "uint8"
                }
              ],
              "internalType": "struct vrni.CellMetaData",
              "name": "cellMetadata",
              "type": "tuple"
            }
          ],
          "internalType": "struct vrni.CellData",
          "name": "",
          "type": "tuple"
        }
      ],
      "stateMutability": "view",
      "type": "function"
    },
    {
      "inputs": [
        {
          "internalType": "uint256",
          "name": "id",
          "type": "uint256"
        }
      ],
      "name": "getRawMetadata",
      "outputs": [
        {
          "components": [
            {
              "internalType": "uint16",
              "name": "population",
              "type": "uint16"
            },
            {
              "internalType": "uint16",
              "name": "altitude",
              "type": "uint16"
            },
            {
              "internalType": "uint8",
              "name": "climate",
              "type": "uint8"
            },
            {
              "internalType": "uint8",
              "name": "resources",
              "type": "uint8"
            },
            {
              "internalType": "uint8",
              "name": "language",
              "type": "uint8"
            },
            {
              "internalType": "uint8",
              "name": "development",
              "type": "uint8"
            },
            {
              "internalType": "uint8",
              "name": "industry",
              "type": "uint8"
            },
            {
              "internalType": "uint8",
              "name": "taxRate",
              "type": "uint8"
            },
            {
              "internalType": "uint8",
              "name": "government",
              "type": "uint8"
            }
          ],
          "internalType": "struct vrni.CellMetaData",
          "name": "",
          "type": "tuple"
        }
      ],
      "stateMutability": "view",
      "type": "function"
    },
    {
      "inputs": [
        {
          "internalType": "uint256",
          "name": "id",
          "type": "uint256"
        }
      ],
      "name": "getRawViewdata",
      "outputs": [
        {
          "components": [
            {
              "internalType": "bytes3",
              "name": "colourRGB",
              "type": "bytes3"
            },
            {
              "internalType": "uint16",
              "name": "viewBoxX",
              "type": "uint16"
            },
            {
              "internalType": "uint16",
              "name": "viewBoxY",
              "type": "uint16"
            },
            {
              "internalType": "uint16",
              "name": "viewBoxWidth",
              "type": "uint16"
            },
            {
              "internalType": "uint16",
              "name": "viewBoxHeight",
              "type": "uint16"
            }
          ],
          "internalType": "struct vrni.CellViewData",
          "name": "",
          "type": "tuple"
        }
      ],
      "stateMutability": "view",
      "type": "function"
    },
    {
      "inputs": [
        {
          "internalType": "uint256",
          "name": "id",
          "type": "uint256"
        }
      ],
      "name": "getXYCoordinatesAddress",
      "outputs": [
        {
          "internalType": "address",
          "name": "",
          "type": "address"
        }
      ],
      "stateMutability": "view",
      "type": "function"
    },
    {
      "inputs": [
        {
          "internalType": "address",
          "name": "",
          "type": "address"
        },
        {
          "internalType": "address",
          "name": "",
          "type": "address"
        }
      ],
      "name": "isApprovedForAll",
      "outputs": [
        {
          "internalType": "bool",
          "name": "",
          "type": "bool"
        }
      ],
      "stateMutability": "view",
      "type": "function"
    },
    {
      "inputs": [],
      "name": "name",
      "outputs": [
        {
          "internalType": "string",
          "name": "",
          "type": "string"
        }
      ],
      "stateMutability": "view",
      "type": "function"
    },
    {
      "inputs": [
        {
          "internalType": "uint256",
          "name": "",
          "type": "uint256"
        }
      ],
      "name": "ownerOf",
      "outputs": [
        {
          "internalType": "address",
          "name": "",
          "type": "address"
        }
      ],
      "stateMutability": "view",
      "type": "function"
    },
    {
      "inputs": [
        {
          "internalType": "uint256",
          "name": "id",
          "type": "uint256"
        },
        {
          "components": [
            {
              "internalType": "address",
              "name": "cellXYCoordinates",
              "type": "address"
            },
            {
              "internalType": "uint16",
              "name": "centreX",
              "type": "uint16"
            },
            {
              "internalType": "uint16",
              "name": "centreY",
              "type": "uint16"
            },
            {
              "components": [
                {
                  "internalType": "bytes3",
                  "name": "colourRGB",
                  "type": "bytes3"
                },
                {
                  "internalType": "uint16",
                  "name": "viewBoxX",
                  "type": "uint16"
                },
                {
                  "internalType": "uint16",
                  "name": "viewBoxY",
                  "type": "uint16"
                },
                {
                  "internalType": "uint16",
                  "name": "viewBoxWidth",
                  "type": "uint16"
                },
                {
                  "internalType": "uint16",
                  "name": "viewBoxHeight",
                  "type": "uint16"
                }
              ],
              "internalType": "struct vrni.CellViewData",
              "name": "cellViewdata",
              "type": "tuple"
            },
            {
              "internalType": "address",
              "name": "cellPathdata",
              "type": "address"
            },
            {
              "components": [
                {
                  "internalType": "uint16",
                  "name": "population",
                  "type": "uint16"
                },
                {
                  "internalType": "uint16",
                  "name": "altitude",
                  "type": "uint16"
                },
                {
                  "internalType": "uint8",
                  "name": "climate",
                  "type": "uint8"
                },
                {
                  "internalType": "uint8",
                  "name": "resources",
                  "type": "uint8"
                },
                {
                  "internalType": "uint8",
                  "name": "language",
                  "type": "uint8"
                },
                {
                  "internalType": "uint8",
                  "name": "development",
                  "type": "uint8"
                },
                {
                  "internalType": "uint8",
                  "name": "industry",
                  "type": "uint8"
                },
                {
                  "internalType": "uint8",
                  "name": "taxRate",
                  "type": "uint8"
                },
                {
                  "internalType": "uint8",
                  "name": "government",
                  "type": "uint8"
                }
              ],
              "internalType": "struct vrni.CellMetaData",
              "name": "cellMetadata",
              "type": "tuple"
            }
          ],
          "internalType": "struct vrni.CellData",
          "name": "revealedData",
          "type": "tuple"
        }
      ],
      "name": "revealData",
      "outputs": [],
      "stateMutability": "nonpayable",
      "type": "function"
    },
    {
      "inputs": [
        {
          "internalType": "address",
          "name": "from",
          "type": "address"
        },
        {
          "internalType": "address",
          "name": "to",
          "type": "address"
        },
        {
          "internalType": "uint256",
          "name": "id",
          "type": "uint256"
        }
      ],
      "name": "safeTransferFrom",
      "outputs": [],
      "stateMutability": "nonpayable",
      "type": "function"
    },
    {
      "inputs": [
        {
          "internalType": "address",
          "name": "from",
          "type": "address"
        },
        {
          "internalType": "address",
          "name": "to",
          "type": "address"
        },
        {
          "internalType": "uint256",
          "name": "id",
          "type": "uint256"
        },
        {
          "internalType": "bytes",
          "name": "data",
          "type": "bytes"
        }
      ],
      "name": "safeTransferFrom",
      "outputs": [],
      "stateMutability": "nonpayable",
      "type": "function"
    },
    {
      "inputs": [
        {
          "internalType": "address",
          "name": "operator",
          "type": "address"
        },
        {
          "internalType": "bool",
          "name": "approved",
          "type": "bool"
        }
      ],
      "name": "setApprovalForAll",
      "outputs": [],
      "stateMutability": "nonpayable",
      "type": "function"
    },
    {
      "inputs": [
        {
          "internalType": "address",
          "name": "newClaimer",
          "type": "address"
        }
      ],
      "name": "setClaimer",
      "outputs": [],
      "stateMutability": "nonpayable",
      "type": "function"
    },
    {
      "inputs": [
        {
          "internalType": "address",
          "name": "newDataManager",
          "type": "address"
        }
      ],
      "name": "setDataManager",
      "outputs": [],
      "stateMutability": "nonpayable",
      "type": "function"
    },
    {
      "inputs": [
        {
          "internalType": "address",
          "name": "_newUriCoder",
          "type": "address"
        }
      ],
      "name": "setUriCoder",
      "outputs": [],
      "stateMutability": "nonpayable",
      "type": "function"
    },
    {
      "inputs": [
        {
          "internalType": "bytes4",
          "name": "interfaceId",
          "type": "bytes4"
        }
      ],
      "name": "supportsInterface",
      "outputs": [
        {
          "internalType": "bool",
          "name": "",
          "type": "bool"
        }
      ],
      "stateMutability": "view",
      "type": "function"
    },
    {
      "inputs": [],
      "name": "symbol",
      "outputs": [
        {
          "internalType": "string",
          "name": "",
          "type": "string"
        }
      ],
      "stateMutability": "view",
      "type": "function"
    },
    {
      "inputs": [
        {
          "internalType": "uint256",
          "name": "id",
          "type": "uint256"
        }
      ],
      "name": "tokenURI",
      "outputs": [
        {
          "internalType": "string",
          "name": "",
          "type": "string"
        }
      ],
      "stateMutability": "view",
      "type": "function"
    },
    {
      "inputs": [
        {
          "internalType": "address",
          "name": "from",
          "type": "address"
        },
        {
          "internalType": "address",
          "name": "to",
          "type": "address"
        },
        {
          "internalType": "uint256",
          "name": "id",
          "type": "uint256"
        }
      ],
      "name": "transferFrom",
      "outputs": [],
      "stateMutability": "nonpayable",
      "type": "function"
    }
  ],
  "bytecode": {
    "object": "0x608060405260016006553480156200001657600080fd5b5060408051808201825260088152671d9c9b9a4813919560c21b60208083019182528351808501909452600484526376726e6960e01b908401528151919291620000639160009162000094565b5080516200007990600190602084019062000094565b5050600a80546001600160a01b031916331790555062000177565b828054620000a2906200013a565b90600052602060002090601f016020900481019282620000c6576000855562000111565b82601f10620000e157805160ff191683800117855562000111565b8280016001018555821562000111579182015b8281111562000111578251825591602001919060010190620000f4565b506200011f92915062000123565b5090565b5b808211156200011f576000815560010162000124565b600181811c908216806200014f57607f821691505b602082108114156200017157634e487b7160e01b600052602260045260246000fd5b50919050565b6120f080620001876000396000f3fe608060405234801561001057600080fd5b50600436106101da5760003560e01c80638ef79ef511610104578063c87b56dd116100a2578063e90cd85811610071578063e90cd858146105b7578063e985e9c5146105e7578063ed8ce93c14610615578063f3bcec9c1461063557600080fd5b8063c87b56dd1461056b578063cdfb58321461057e578063d5f3948814610591578063dca02722146105a457600080fd5b8063a22cb465116100de578063a22cb465146104f7578063a90dd8d81461050a578063b88d4fde1461052a578063c0f376191461053d57600080fd5b80638ef79ef5146104c95780638f254d87146104dc57806395d89b41146104ef57600080fd5b806330a7c5c91161017c5780636352211e1161014b5780636352211e1461044c57806366345da4146104755780636c5657d81461048857806370a082311461049b57600080fd5b806330a7c5c9146103f35780633d55ad9c1461041357806342842e0e146104265780634f73b3021461043957600080fd5b8063081812fc116101b8578063081812fc1461036a578063095ea7b3146103ab57806310050ef4146103c057806323b872dd146103e057600080fd5b8063013210b8146101df57806301ffc9a71461033257806306fdde0314610355575b600080fd5b6103176101ed36600461165e565b600b602090815260009182526040918290208054835160a0808201865260018401546001600160e81b031960e882901b1683526301000000810461ffff90811684880152600160281b8083048216858a0152600160381b8084048316606080880191909152600160481b94859004841660808089019190915260028a01548c5161012081018e526003909b01548087168c5262010000810487169c8c019c909c5260ff6401000000008d0481169d8c019d909d52938b048c16918a0191909152600160301b8a048b16908901528804891693870193909352600160401b8704881660c0870152908604871660e0860152600160501b9095049095166101008401526001600160a01b0380831695600160a01b8404861695600160b01b909404909316939192169086565b6040516103299695949392919061175c565b60405180910390f35b6103456103403660046117c8565b610648565b6040519015158152602001610329565b61035d61069a565b6040516103299190611844565b61039361037836600461165e565b6004602052600090815260409020546001600160a01b031681565b6040516001600160a01b039091168152602001610329565b6103be6103b9366004611873565b610728565b005b6103d36103ce366004611b25565b61080f565b6040516103299190611bd6565b6103be6103ee366004611c1a565b610895565b61040661040136600461165e565b610a5c565b6040516103299190611c56565b6103be610421366004611c64565b610b20565b6103be610434366004611c1a565b610ba3565b600954610393906001600160a01b031681565b61039361045a36600461165e565b6003602052600090815260409020546001600160a01b031681565b600854610393906001600160a01b031681565b6103be610496366004611d05565b610c96565b6104bb6104a9366004611d05565b60026020526000908152604090205481565b604051908152602001610329565b6104bb6104d7366004611d20565b610ce2565b6103be6104ea366004611d3d565b610d12565b61035d610f40565b6103be610505366004611d6b565b610f4d565b61051d61051836600461165e565b610fb9565b6040516103299190611da7565b6103be610538366004611e3c565b61112f565b61055061054b36600461165e565b611214565b6040805161ffff938416815292909116602083015201610329565b61035d61057936600461165e565b611266565b6103be61058c366004611d05565b6112d8565b600a54610393906001600160a01b031681565b6103936105b236600461165e565b611324565b6103be6105c5366004611d05565b600780546001600160a01b0319166001600160a01b0392909216919091179055565b6103456105f5366004611ee7565b600560209081526000928352604080842090915290825290205460ff1681565b61062861062336600461165e565b61136a565b6040516103299190611f11565b61039361064336600461165e565b61143c565b60006301ffc9a760e01b6001600160e01b03198316148061067957506380ac58cd60e01b6001600160e01b03198316145b806106945750635b5e139f60e01b6001600160e01b03198316145b92915050565b600080546106a790611f20565b80601f01602080910402602001604051908101604052809291908181526020018280546106d390611f20565b80156107205780601f106106f557610100808354040283529160200191610720565b820191906000526020600020905b81548152906001019060200180831161070357829003601f168201915b505050505081565b6000818152600360205260409020546001600160a01b03163381148061077157506001600160a01b038116600090815260056020908152604080832033845290915290205460ff165b6107b35760405162461bcd60e51b815260206004820152600e60248201526d1393d517d055551213d49256915160921b60448201526064015b60405180910390fd5b60008281526004602052604080822080546001600160a01b0319166001600160a01b0387811691821790925591518593918516917f8c5be1e5ebec7d5bd14f71427d1e84f3dd0314c0f7b2291e5b200ac8c7c3b92591a4505050565b805160609060005b8181101561088e5783818151811061083157610831611f5b565b60200260200101516040516020016108499190611da7565b6040516020818303038152906040528051906020012083828151811061087157610871611f5b565b60209081029190910101528061088681611f71565b915050610817565b5050919050565b6000818152600360205260409020546001600160a01b038481169116146108eb5760405162461bcd60e51b815260206004820152600a60248201526957524f4e475f46524f4d60b01b60448201526064016107aa565b6001600160a01b0382166109355760405162461bcd60e51b81526020600482015260116024820152701253959053125117d49150d25412515395607a1b60448201526064016107aa565b336001600160a01b038416148061096f57506001600160a01b038316600090815260056020908152604080832033845290915290205460ff165b8061099057506000818152600460205260409020546001600160a01b031633145b6109cd5760405162461bcd60e51b815260206004820152600e60248201526d1393d517d055551213d49256915160921b60448201526064016107aa565b6001600160a01b0380841660008181526002602090815260408083208054600019019055938616808352848320805460010190558583526003825284832080546001600160a01b03199081168317909155600490925284832080549092169091559251849392917fddf252ad1be2c89b69c2b068fc378daa952ba7f163c4a11628f55a4df523b3ef91a4505050565b6040805160a081018252600080825260208201819052918101829052606081018290526080810191909152610a908261147f565b610aac5760405162461bcd60e51b81526004016107aa90611f9a565b506000908152600b6020908152604091829020825160a0810184526001909101546001600160e81b031960e882901b16825261ffff63010000008204811693830193909352600160281b8104831693820193909352600160381b830482166060820152600160481b90920416608082015290565b6008546001600160a01b03163314610b4a5760405162461bcd60e51b81526004016107aa90611fc2565b80516000838152600b6020908152604090912080549184015163ffffffff60a01b1990921661ffff938416600160a01b0261ffff60b01b191617600160b01b9390921692909202179055610b9e838361149c565b505050565b610bae838383610895565b6001600160a01b0382163b1580610c575750604051630a85bd0160e11b8082523360048301526001600160a01b03858116602484015260448301849052608060648401526000608484015290919084169063150b7a029060a4016020604051808303816000875af1158015610c27573d6000803e3d6000fd5b505050506040513d601f19601f82011682018060405250810190610c4b9190611fe9565b6001600160e01b031916145b610b9e5760405162461bcd60e51b815260206004820152601060248201526f155394d0519157d49150d2541251539560821b60448201526064016107aa565b600a546001600160a01b03163314610cc05760405162461bcd60e51b81526004016107aa90611fc2565b600980546001600160a01b0319166001600160a01b0392909216919091179055565b600081604051602001610cf59190611da7565b604051602081830303815290604052805190602001209050919050565b6009546001600160a01b03163314610d3c5760405162461bcd60e51b81526004016107aa90611fc2565b6000918252600b60209081526040928390208251815484840151858701516001600160a01b039384166001600160b01b031990931692909217600160a01b61ffff928316021761ffff60b01b1916600160b01b92821692909202919091178355606080860151805160018601805483890151848c01518587015160809687015160e89690961c64ffffffffff19909416939093176301000000928916929092029190911768ffffffff00000000001916600160281b918816820268ffff00000000000000191617600160381b9288168302176affff0000000000000000001916600160481b948816850217909255838a01516002890180546001600160a01b031916919098161790965560a098890151805160039098018054998201519b82015195820151948201519a82015160c083015160e0840151610100909401519a891663ffffffff19909c169b909b17620100009d9098169c909c029690961765ffff00000000191664010000000060ff9687160265ff00000000001916179385169091029290921767ffff0000000000001916600160301b9884169890980267ff000000000000001916979097179782169093029690961769ffff00000000000000001916600160401b9487169490940269ff0000000000000000001916939093179085169093029290921760ff60501b1916600160501b9390921692909202179055565b600180546106a790611f20565b3360008181526005602090815260408083206001600160a01b03871680855290835292819020805460ff191686151590811790915590519081529192917f17307eab39ab6107e8899845ad3d59bd9653f200f220920489ca2b5937696c31910160405180910390a35050565b610fc16115a7565b610fca8261147f565b610fe65760405162461bcd60e51b81526004016107aa90611f9a565b506000908152600b6020908152604091829020825160c0808201855282546001600160a01b03808216845261ffff600160a01b8304811685880152600160b01b909204821684880152865160a0808201895260018701546001600160e81b031960e882901b168352630100000081048516838a0152600160281b8082048616848c0152600160381b8083048716606086810191909152600160481b938490048816608080880191909152818b019690965260028b0154909616858a01528b5161012081018d526003909a01548088168b526201000081049097169a8a019a909a5260ff640100000000870481169b8a019b909b5285048a1693880193909352600160301b8404891691870191909152958204871685870152600160401b8204871692850192909252908104851660e0840152600160501b90049093166101008201529082015290565b61113a848484610895565b6001600160a01b0383163b15806111cf5750604051630a85bd0160e11b808252906001600160a01b0385169063150b7a0290611180903390899088908890600401612006565b6020604051808303816000875af115801561119f573d6000803e3d6000fd5b505050506040513d601f19601f820116820180604052508101906111c39190611fe9565b6001600160e01b031916145b61120e5760405162461bcd60e51b815260206004820152601060248201526f155394d0519157d49150d2541251539560821b60448201526064016107aa565b50505050565b6000806112208361147f565b61123c5760405162461bcd60e51b81526004016107aa90611f9a565b50506000908152600b602052604090205461ffff600160a01b8204811692600160b01b9092041690565b600754604051631b3820d360e21b8152600481018390526060916001600160a01b031690636ce0834c90602401600060405180830381865afa1580156112b0573d6000803e3d6000fd5b505050506040513d6000823e601f3d908101601f191682016040526106949190810190612043565b600a546001600160a01b031633146113025760405162461bcd60e51b81526004016107aa90611fc2565b600880546001600160a01b0319166001600160a01b0392909216919091179055565b600061132f8261147f565b61134b5760405162461bcd60e51b81526004016107aa90611f9a565b506000908152600b60205260409020600201546001600160a01b031690565b611372611612565b61137b8261147f565b6113975760405162461bcd60e51b81526004016107aa90611f9a565b506000908152600b602090815260409182902082516101208101845260039091015461ffff8082168352620100008204169282019290925260ff6401000000008304811693820193909352600160281b820483166060820152600160301b820483166080820152600160381b8204831660a0820152600160401b8204831660c0820152600160481b8204831660e0820152600160501b90910490911661010082015290565b60006114478261147f565b6114635760405162461bcd60e51b81526004016107aa90611f9a565b506000908152600b60205260409020546001600160a01b031690565b6000908152600360205260409020546001600160a01b0316151590565b6001600160a01b0382166114e65760405162461bcd60e51b81526020600482015260116024820152701253959053125117d49150d25412515395607a1b60448201526064016107aa565b6000818152600360205260409020546001600160a01b03161561153c5760405162461bcd60e51b815260206004820152600e60248201526d1053149150511657d3525395115160921b60448201526064016107aa565b6001600160a01b038216600081815260026020908152604080832080546001019055848352600390915280822080546001600160a01b0319168417905551839291907fddf252ad1be2c89b69c2b068fc378daa952ba7f163c4a11628f55a4df523b3ef908290a45050565b6040805160c08101825260008082526020820181905291810191909152606081016115f96040805160a08101825260008082526020820181905291810182905260608101829052608081019190915290565b81526000602082015260400161160d611612565b905290565b6040805161012081018252600080825260208201819052918101829052606081018290526080810182905260a0810182905260c0810182905260e0810182905261010081019190915290565b60006020828403121561167057600080fd5b5035919050565b80516001600160e81b031916825260208082015161ffff9081169184019190915260408083015182169084015260608083015182169084015260809182015116910152565b61ffff8082511683528060208301511660208401525060ff604082015116604083015260608101516116f3606084018260ff169052565b506080810151611708608084018260ff169052565b5060a081015161171d60a084018260ff169052565b5060c081015161173260c084018260ff169052565b5060e081015161174760e084018260ff169052565b506101008181015160ff81168483015261120e565b6001600160a01b03878116825261ffff87811660208401528616604083015261024082019061178e6060840187611677565b84166101008301526117a46101208301846116bc565b979650505050505050565b6001600160e01b0319811681146117c557600080fd5b50565b6000602082840312156117da57600080fd5b81356117e5816117af565b9392505050565b60005b838110156118075781810151838201526020016117ef565b8381111561120e5750506000910152565b600081518084526118308160208601602086016117ec565b601f01601f19169290920160200192915050565b6020815260006117e56020830184611818565b80356001600160a01b038116811461186e57600080fd5b919050565b6000806040838503121561188657600080fd5b61188f83611857565b946020939093013593505050565b634e487b7160e01b600052604160045260246000fd5b604051610120810167ffffffffffffffff811182821017156118d7576118d761189d565b60405290565b60405160c0810167ffffffffffffffff811182821017156118d7576118d761189d565b60405160a0810167ffffffffffffffff811182821017156118d7576118d761189d565b604051601f8201601f1916810167ffffffffffffffff8111828210171561194c5761194c61189d565b604052919050565b803561ffff8116811461186e57600080fd5b803560ff8116811461186e57600080fd5b6000610120828403121561198a57600080fd5b6119926118b3565b905061199d82611954565b81526119ab60208301611954565b60208201526119bc60408301611966565b60408201526119cd60608301611966565b60608201526119de60808301611966565b60808201526119ef60a08301611966565b60a0820152611a0060c08301611966565b60c0820152611a1160e08301611966565b60e0820152610100611a24818401611966565b9082015292915050565b6000818303610240811215611a4257600080fd5b611a4a6118dd565b9150611a5583611857565b8252611a6360208401611954565b6020830152611a7460408401611954565b604083015260a0605f1982011215611a8b57600080fd5b50611a94611900565b60608301356001600160e81b031981168114611aaf57600080fd5b8152611abd60808401611954565b6020820152611ace60a08401611954565b6040820152611adf60c08401611954565b6060820152611af060e08401611954565b60808201526060820152611b076101008301611857565b6080820152611b1a836101208401611977565b60a082015292915050565b60006020808385031215611b3857600080fd5b823567ffffffffffffffff80821115611b5057600080fd5b818501915085601f830112611b6457600080fd5b813581811115611b7657611b7661189d565b611b84848260051b01611923565b8181528481019250610240918202840185019188831115611ba457600080fd5b938501935b82851015611bca57611bbb8986611a2e565b84529384019392850192611ba9565b50979650505050505050565b6020808252825182820181905260009190848201906040850190845b81811015611c0e57835183529284019291840191600101611bf2565b50909695505050505050565b600080600060608486031215611c2f57600080fd5b611c3884611857565b9250611c4660208501611857565b9150604084013590509250925092565b60a081016106948284611677565b600080600060808486031215611c7957600080fd5b611c8284611857565b9250602080850135925085605f860112611c9b57600080fd5b6040516040810181811067ffffffffffffffff82111715611cbe57611cbe61189d565b604052806080870188811115611cd357600080fd5b604088015b81811015611cf657611ce981611954565b8352918401918401611cd8565b50505080925050509250925092565b600060208284031215611d1757600080fd5b6117e582611857565b60006102408284031215611d3357600080fd5b6117e58383611a2e565b6000806102608385031215611d5157600080fd5b82359150611d628460208501611a2e565b90509250929050565b60008060408385031215611d7e57600080fd5b611d8783611857565b915060208301358015158114611d9c57600080fd5b809150509250929050565b60006102408201905060018060a01b03808451168352602084015161ffff808216602086015280604087015116604086015250506060840151611ded6060850182611677565b5060808401511661010083015260a0830151611e0d6101208401826116bc565b5092915050565b600067ffffffffffffffff821115611e2e57611e2e61189d565b50601f01601f191660200190565b60008060008060808587031215611e5257600080fd5b611e5b85611857565b9350611e6960208601611857565b925060408501359150606085013567ffffffffffffffff811115611e8c57600080fd5b8501601f81018713611e9d57600080fd5b8035611eb0611eab82611e14565b611923565b818152886020838501011115611ec557600080fd5b8160208401602083013760006020838301015280935050505092959194509250565b60008060408385031215611efa57600080fd5b611f0383611857565b9150611d6260208401611857565b610120810161069482846116bc565b600181811c90821680611f3457607f821691505b60208210811415611f5557634e487b7160e01b600052602260045260246000fd5b50919050565b634e487b7160e01b600052603260045260246000fd5b6000600019821415611f9357634e487b7160e01b600052601160045260246000fd5b5060010190565b6020808252600e908201526d1393d391561254d510539517d25160921b604082015260600190565b6020808252600d908201526c1393d517d41154935255151151609a1b604082015260600190565b600060208284031215611ffb57600080fd5b81516117e5816117af565b6001600160a01b038581168252841660208201526040810183905260806060820181905260009061203990830184611818565b9695505050505050565b60006020828403121561205557600080fd5b815167ffffffffffffffff81111561206c57600080fd5b8201601f8101841361207d57600080fd5b805161208b611eab82611e14565b8181528560208385010111156120a057600080fd5b6120b18260208301602086016117ec565b9594505050505056fea26469706673582212204b1f7fbff04cd87783fc7ff27a848e2ba1fa137ee28a7a258943343e5f43953d64736f6c634300080a0033",
    "linkReferences": {}
  }
}