{
  "abi": [
    {
      "inputs": [],
      "stateMutability": "nonpayable",
      "type": "constructor"
    },
    {
      "anonymous": false,
      "inputs": [
        {
          "indexed": true,
          "internalType": "address",
          "name": "owner",
          "type": "address"
        },
        {
          "indexed": true,
          "internalType": "address",
          "name": "spender",
          "type": "address"
        },
        {
          "indexed": true,
          "internalType": "uint256",
          "name": "id",
          "type": "uint256"
        }
      ],
      "name": "Approval",
      "type": "event"
    },
    {
      "anonymous": false,
      "inputs": [
        {
          "indexed": true,
          "internalType": "address",
          "name": "owner",
          "type": "address"
        },
        {
          "indexed": true,
          "internalType": "address",
          "name": "operator",
          "type": "address"
        },
        {
          "indexed": false,
          "internalType": "bool",
          "name": "approved",
          "type": "bool"
        }
      ],
      "name": "ApprovalForAll",
      "type": "event"
    },
    {
      "anonymous": false,
      "inputs": [
        {
          "indexed": true,
          "internalType": "address",
          "name": "from",
          "type": "address"
        },
        {
          "indexed": true,
          "internalType": "address",
          "name": "to",
          "type": "address"
        },
        {
          "indexed": true,
          "internalType": "uint256",
          "name": "id",
          "type": "uint256"
        }
      ],
      "name": "Transfer",
      "type": "event"
    },
    {
      "inputs": [
        {
          "internalType": "address",
          "name": "spender",
          "type": "address"
        },
        {
          "internalType": "uint256",
          "name": "id",
          "type": "uint256"
        }
      ],
      "name": "approve",
      "outputs": [],
      "stateMutability": "nonpayable",
      "type": "function"
    },
    {
      "inputs": [
        {
          "internalType": "address",
          "name": "",
          "type": "address"
        }
      ],
      "name": "balanceOf",
      "outputs": [
        {
          "internalType": "uint256",
          "name": "",
          "type": "uint256"
        }
      ],
      "stateMutability": "view",
      "type": "function"
    },
    {
      "inputs": [
        {
          "internalType": "uint256",
          "name": "",
          "type": "uint256"
        }
      ],
      "name": "cellDataSet",
      "outputs": [
        {
          "internalType": "address",
          "name": "cellXYCoordinates",
          "type": "address"
        },
        {
          "internalType": "uint16",
          "name": "centreX",
          "type": "uint16"
        },
        {
          "internalType": "uint16",
          "name": "centreY",
          "type": "uint16"
        },
        {
          "components": [
            {
              "internalType": "bytes3",
              "name": "colourRGB",
              "type": "bytes3"
            },
            {
              "internalType": "uint16",
              "name": "viewBoxX",
              "type": "uint16"
            },
            {
              "internalType": "uint16",
              "name": "viewBoxY",
              "type": "uint16"
            },
            {
              "internalType": "uint16",
              "name": "viewBoxWidth",
              "type": "uint16"
            },
            {
              "internalType": "uint16",
              "name": "viewBoxHeight",
              "type": "uint16"
            }
          ],
          "internalType": "struct vrni.CellViewData",
          "name": "cellViewdata",
          "type": "tuple"
        },
        {
          "internalType": "address",
          "name": "cellPathdata",
          "type": "address"
        },
        {
          "components": [
            {
              "internalType": "uint16",
              "name": "population",
              "type": "uint16"
            },
            {
              "internalType": "uint16",
              "name": "altitude",
              "type": "uint16"
            },
            {
              "internalType": "uint8",
              "name": "climate",
              "type": "uint8"
            },
            {
              "internalType": "uint8",
              "name": "resources",
              "type": "uint8"
            },
            {
              "internalType": "uint8",
              "name": "language",
              "type": "uint8"
            },
            {
              "internalType": "uint8",
              "name": "development",
              "type": "uint8"
            },
            {
              "internalType": "uint8",
              "name": "industry",
              "type": "uint8"
            },
            {
              "internalType": "uint8",
              "name": "taxRate",
              "type": "uint8"
            },
            {
              "internalType": "uint8",
              "name": "government",
              "type": "uint8"
            }
          ],
          "internalType": "struct vrni.CellMetaData",
          "name": "cellMetadata",
          "type": "tuple"
        }
      ],
      "stateMutability": "view",
      "type": "function"
    },
    {
      "inputs": [
        {
          "internalType": "address",
          "name": "_to",
          "type": "address"
        },
        {
          "internalType": "uint256",
          "name": "_id",
          "type": "uint256"
        },
        {
          "internalType": "uint16[2]",
          "name": "xy",
          "type": "uint16[2]"
        }
      ],
      "name": "claim",
      "outputs": [],
      "stateMutability": "nonpayable",
      "type": "function"
    },
    {
      "inputs": [],
      "name": "claimContract",
      "outputs": [
        {
          "internalType": "address",
          "name": "",
          "type": "address"
        }
      ],
      "stateMutability": "view",
      "type": "function"
    },
    {
      "inputs": [],
      "name": "dataManager",
      "outputs": [
        {
          "internalType": "address",
          "name": "",
          "type": "address"
        }
      ],
      "stateMutability": "view",
      "type": "function"
    },
    {
      "inputs": [],
      "name": "deployer",
      "outputs": [
        {
          "internalType": "address",
          "name": "",
          "type": "address"
        }
      ],
      "stateMutability": "view",
      "type": "function"
    },
    {
      "inputs": [
        {
          "internalType": "uint256",
          "name": "",
          "type": "uint256"
        }
      ],
      "name": "getApproved",
      "outputs": [
        {
          "internalType": "address",
          "name": "",
          "type": "address"
        }
      ],
      "stateMutability": "view",
      "type": "function"
    },
    {
      "inputs": [
        {
          "internalType": "uint256",
          "name": "id",
          "type": "uint256"
        }
      ],
      "name": "getCentre",
      "outputs": [
        {
          "internalType": "uint16",
          "name": "x",
          "type": "uint16"
        },
        {
          "internalType": "uint16",
          "name": "y",
          "type": "uint16"
        }
      ],
      "stateMutability": "view",
      "type": "function"
    },
    {
      "inputs": [
        {
          "internalType": "uint256",
          "name": "id",
          "type": "uint256"
        }
      ],
      "name": "getPathDataAddress",
      "outputs": [
        {
          "internalType": "address",
          "name": "",
          "type": "address"
        }
      ],
      "stateMutability": "view",
      "type": "function"
    },
    {
      "inputs": [
        {
          "internalType": "uint256",
          "name": "id",
          "type": "uint256"
        }
      ],
      "name": "getRawCellData",
      "outputs": [
        {
          "components": [
            {
              "internalType": "address",
              "name": "cellXYCoordinates",
              "type": "address"
            },
            {
              "internalType": "uint16",
              "name": "centreX",
              "type": "uint16"
            },
            {
              "internalType": "uint16",
              "name": "centreY",
              "type": "uint16"
            },
            {
              "components": [
                {
                  "internalType": "bytes3",
                  "name": "colourRGB",
                  "type": "bytes3"
                },
                {
                  "internalType": "uint16",
                  "name": "viewBoxX",
                  "type": "uint16"
                },
                {
                  "internalType": "uint16",
                  "name": "viewBoxY",
                  "type": "uint16"
                },
                {
                  "internalType": "uint16",
                  "name": "viewBoxWidth",
                  "type": "uint16"
                },
                {
                  "internalType": "uint16",
                  "name": "viewBoxHeight",
                  "type": "uint16"
                }
              ],
              "internalType": "struct vrni.CellViewData",
              "name": "cellViewdata",
              "type": "tuple"
            },
            {
              "internalType": "address",
              "name": "cellPathdata",
              "type": "address"
            },
            {
              "components": [
                {
                  "internalType": "uint16",
                  "name": "population",
                  "type": "uint16"
                },
                {
                  "internalType": "uint16",
                  "name": "altitude",
                  "type": "uint16"
                },
                {
                  "internalType": "uint8",
                  "name": "climate",
                  "type": "uint8"
                },
                {
                  "internalType": "uint8",
                  "name": "resources",
                  "type": "uint8"
                },
                {
                  "internalType": "uint8",
                  "name": "language",
                  "type": "uint8"
                },
                {
                  "internalType": "uint8",
                  "name": "development",
                  "type": "uint8"
                },
                {
                  "internalType": "uint8",
                  "name": "industry",
                  "type": "uint8"
                },
                {
                  "internalType": "uint8",
                  "name": "taxRate",
                  "type": "uint8"
                },
                {
                  "internalType": "uint8",
                  "name": "government",
                  "type": "uint8"
                }
              ],
              "internalType": "struct vrni.CellMetaData",
              "name": "cellMetadata",
              "type": "tuple"
            }
          ],
          "internalType": "struct vrni.CellData",
          "name": "",
          "type": "tuple"
        }
      ],
      "stateMutability": "view",
      "type": "function"
    },
    {
      "inputs": [
        {
          "internalType": "uint256",
          "name": "id",
          "type": "uint256"
        }
      ],
      "name": "getRawMetadata",
      "outputs": [
        {
          "components": [
            {
              "internalType": "uint16",
              "name": "population",
              "type": "uint16"
            },
            {
              "internalType": "uint16",
              "name": "altitude",
              "type": "uint16"
            },
            {
              "internalType": "uint8",
              "name": "climate",
              "type": "uint8"
            },
            {
              "internalType": "uint8",
              "name": "resources",
              "type": "uint8"
            },
            {
              "internalType": "uint8",
              "name": "language",
              "type": "uint8"
            },
            {
              "internalType": "uint8",
              "name": "development",
              "type": "uint8"
            },
            {
              "internalType": "uint8",
              "name": "industry",
              "type": "uint8"
            },
            {
              "internalType": "uint8",
              "name": "taxRate",
              "type": "uint8"
            },
            {
              "internalType": "uint8",
              "name": "government",
              "type": "uint8"
            }
          ],
          "internalType": "struct vrni.CellMetaData",
          "name": "",
          "type": "tuple"
        }
      ],
      "stateMutability": "view",
      "type": "function"
    },
    {
      "inputs": [
        {
          "internalType": "uint256",
          "name": "id",
          "type": "uint256"
        }
      ],
      "name": "getRawViewdata",
      "outputs": [
        {
          "components": [
            {
              "internalType": "bytes3",
              "name": "colourRGB",
              "type": "bytes3"
            },
            {
              "internalType": "uint16",
              "name": "viewBoxX",
              "type": "uint16"
            },
            {
              "internalType": "uint16",
              "name": "viewBoxY",
              "type": "uint16"
            },
            {
              "internalType": "uint16",
              "name": "viewBoxWidth",
              "type": "uint16"
            },
            {
              "internalType": "uint16",
              "name": "viewBoxHeight",
              "type": "uint16"
            }
          ],
          "internalType": "struct vrni.CellViewData",
          "name": "",
          "type": "tuple"
        }
      ],
      "stateMutability": "view",
      "type": "function"
    },
    {
      "inputs": [
        {
          "internalType": "uint256",
          "name": "id",
          "type": "uint256"
        }
      ],
      "name": "getXYCoordinatesAddress",
      "outputs": [
        {
          "internalType": "address",
          "name": "",
          "type": "address"
        }
      ],
      "stateMutability": "view",
      "type": "function"
    },
    {
      "inputs": [
        {
          "internalType": "address",
          "name": "",
          "type": "address"
        },
        {
          "internalType": "address",
          "name": "",
          "type": "address"
        }
      ],
      "name": "isApprovedForAll",
      "outputs": [
        {
          "internalType": "bool",
          "name": "",
          "type": "bool"
        }
      ],
      "stateMutability": "view",
      "type": "function"
    },
    {
      "inputs": [],
      "name": "name",
      "outputs": [
        {
          "internalType": "string",
          "name": "",
          "type": "string"
        }
      ],
      "stateMutability": "view",
      "type": "function"
    },
    {
      "inputs": [
        {
          "internalType": "uint256",
          "name": "",
          "type": "uint256"
        }
      ],
      "name": "ownerOf",
      "outputs": [
        {
          "internalType": "address",
          "name": "",
          "type": "address"
        }
      ],
      "stateMutability": "view",
      "type": "function"
    },
    {
      "inputs": [
        {
          "internalType": "uint256",
          "name": "id",
          "type": "uint256"
        },
        {
          "components": [
            {
              "internalType": "address",
              "name": "cellXYCoordinates",
              "type": "address"
            },
            {
              "internalType": "uint16",
              "name": "centreX",
              "type": "uint16"
            },
            {
              "internalType": "uint16",
              "name": "centreY",
              "type": "uint16"
            },
            {
              "components": [
                {
                  "internalType": "bytes3",
                  "name": "colourRGB",
                  "type": "bytes3"
                },
                {
                  "internalType": "uint16",
                  "name": "viewBoxX",
                  "type": "uint16"
                },
                {
                  "internalType": "uint16",
                  "name": "viewBoxY",
                  "type": "uint16"
                },
                {
                  "internalType": "uint16",
                  "name": "viewBoxWidth",
                  "type": "uint16"
                },
                {
                  "internalType": "uint16",
                  "name": "viewBoxHeight",
                  "type": "uint16"
                }
              ],
              "internalType": "struct vrni.CellViewData",
              "name": "cellViewdata",
              "type": "tuple"
            },
            {
              "internalType": "address",
              "name": "cellPathdata",
              "type": "address"
            },
            {
              "components": [
                {
                  "internalType": "uint16",
                  "name": "population",
                  "type": "uint16"
                },
                {
                  "internalType": "uint16",
                  "name": "altitude",
                  "type": "uint16"
                },
                {
                  "internalType": "uint8",
                  "name": "climate",
                  "type": "uint8"
                },
                {
                  "internalType": "uint8",
                  "name": "resources",
                  "type": "uint8"
                },
                {
                  "internalType": "uint8",
                  "name": "language",
                  "type": "uint8"
                },
                {
                  "internalType": "uint8",
                  "name": "development",
                  "type": "uint8"
                },
                {
                  "internalType": "uint8",
                  "name": "industry",
                  "type": "uint8"
                },
                {
                  "internalType": "uint8",
                  "name": "taxRate",
                  "type": "uint8"
                },
                {
                  "internalType": "uint8",
                  "name": "government",
                  "type": "uint8"
                }
              ],
              "internalType": "struct vrni.CellMetaData",
              "name": "cellMetadata",
              "type": "tuple"
            }
          ],
          "internalType": "struct vrni.CellData",
          "name": "revealedData",
          "type": "tuple"
        }
      ],
      "name": "revealData",
      "outputs": [],
      "stateMutability": "nonpayable",
      "type": "function"
    },
    {
      "inputs": [
        {
          "internalType": "address",
          "name": "from",
          "type": "address"
        },
        {
          "internalType": "address",
          "name": "to",
          "type": "address"
        },
        {
          "internalType": "uint256",
          "name": "id",
          "type": "uint256"
        }
      ],
      "name": "safeTransferFrom",
      "outputs": [],
      "stateMutability": "nonpayable",
      "type": "function"
    },
    {
      "inputs": [
        {
          "internalType": "address",
          "name": "from",
          "type": "address"
        },
        {
          "internalType": "address",
          "name": "to",
          "type": "address"
        },
        {
          "internalType": "uint256",
          "name": "id",
          "type": "uint256"
        },
        {
          "internalType": "bytes",
          "name": "data",
          "type": "bytes"
        }
      ],
      "name": "safeTransferFrom",
      "outputs": [],
      "stateMutability": "nonpayable",
      "type": "function"
    },
    {
      "inputs": [
        {
          "internalType": "address",
          "name": "operator",
          "type": "address"
        },
        {
          "internalType": "bool",
          "name": "approved",
          "type": "bool"
        }
      ],
      "name": "setApprovalForAll",
      "outputs": [],
      "stateMutability": "nonpayable",
      "type": "function"
    },
    {
      "inputs": [
        {
          "internalType": "address",
          "name": "newClaimer",
          "type": "address"
        }
      ],
      "name": "setClaimer",
      "outputs": [],
      "stateMutability": "nonpayable",
      "type": "function"
    },
    {
      "inputs": [
        {
          "internalType": "address",
          "name": "newDataManager",
          "type": "address"
        }
      ],
      "name": "setDataManager",
      "outputs": [],
      "stateMutability": "nonpayable",
      "type": "function"
    },
    {
      "inputs": [
        {
          "internalType": "address",
          "name": "_newUriCoder",
          "type": "address"
        }
      ],
      "name": "setUriCoder",
      "outputs": [],
      "stateMutability": "nonpayable",
      "type": "function"
    },
    {
      "inputs": [
        {
          "internalType": "bytes4",
          "name": "interfaceId",
          "type": "bytes4"
        }
      ],
      "name": "supportsInterface",
      "outputs": [
        {
          "internalType": "bool",
          "name": "",
          "type": "bool"
        }
      ],
      "stateMutability": "view",
      "type": "function"
    },
    {
      "inputs": [],
      "name": "symbol",
      "outputs": [
        {
          "internalType": "string",
          "name": "",
          "type": "string"
        }
      ],
      "stateMutability": "view",
      "type": "function"
    },
    {
      "inputs": [
        {
          "internalType": "uint256",
          "name": "id",
          "type": "uint256"
        }
      ],
      "name": "tokenURI",
      "outputs": [
        {
          "internalType": "string",
          "name": "",
          "type": "string"
        }
      ],
      "stateMutability": "view",
      "type": "function"
    },
    {
      "inputs": [
        {
          "internalType": "address",
          "name": "from",
          "type": "address"
        },
        {
          "internalType": "address",
          "name": "to",
          "type": "address"
        },
        {
          "internalType": "uint256",
          "name": "id",
          "type": "uint256"
        }
      ],
      "name": "transferFrom",
      "outputs": [],
      "stateMutability": "nonpayable",
      "type": "function"
    }
  ],
  "bytecode": {
    "object": "0x608060405260016006553480156200001657600080fd5b5060408051808201825260088152671d9c9b9a4813919560c21b60208083019182528351808501909452600484526376726e6960e01b908401528151919291620000639160009162000094565b5080516200007990600190602084019062000094565b5050600a80546001600160a01b031916331790555062000177565b828054620000a2906200013a565b90600052602060002090601f016020900481019282620000c6576000855562000111565b82601f10620000e157805160ff191683800117855562000111565b8280016001018555821562000111579182015b8281111562000111578251825591602001919060010190620000f4565b506200011f92915062000123565b5090565b5b808211156200011f576000815560010162000124565b600181811c908216806200014f57607f821691505b602082108114156200017157634e487b7160e01b600052602260045260246000fd5b50919050565b611e9d80620001876000396000f3fe608060405234801561001057600080fd5b50600436106101c45760003560e01c80638f254d87116100f9578063cdfb583211610097578063e90cd85811610071578063e90cd8581461056e578063e985e9c51461059e578063ed8ce93c146105cc578063f3bcec9c146105ec57600080fd5b8063cdfb583214610535578063d5f3948814610548578063dca027221461055b57600080fd5b8063a90dd8d8116100d3578063a90dd8d8146104c1578063b88d4fde146104e1578063c0f37619146104f4578063c87b56dd1461052257600080fd5b80638f254d871461049357806395d89b41146104a6578063a22cb465146104ae57600080fd5b80633d55ad9c116101665780636352211e116101405780636352211e1461041657806366345da41461043f5780636c5657d81461045257806370a082311461046557600080fd5b80633d55ad9c146103dd57806342842e0e146103f05780634f73b3021461040357600080fd5b8063081812fc116101a2578063081812fc14610354578063095ea7b31461039557806323b872dd146103aa57806330a7c5c9146103bd57600080fd5b8063013210b8146101c957806301ffc9a71461031c57806306fdde031461033f575b600080fd5b6103016101d736600461155f565b600b602090815260009182526040918290208054835160a0808201865260018401546001600160e81b031960e882901b1683526301000000810461ffff90811684880152600160281b8083048216858a0152600160381b8084048316606080880191909152600160481b94859004841660808089019190915260028a01548c5161012081018e526003909b01548087168c5262010000810487169c8c019c909c5260ff6401000000008d0481169d8c019d909d52938b048c16918a0191909152600160301b8a048b16908901528804891693870193909352600160401b8704881660c0870152908604871660e0860152600160501b9095049095166101008401526001600160a01b0380831695600160a01b8404861695600160b01b909404909316939192169086565b6040516103139695949392919061165d565b60405180910390f35b61032f61032a3660046116c9565b6105ff565b6040519015158152602001610313565b610347610651565b6040516103139190611745565b61037d61036236600461155f565b6004602052600090815260409020546001600160a01b031681565b6040516001600160a01b039091168152602001610313565b6103a86103a3366004611774565b6106df565b005b6103a86103b836600461179e565b6107c6565b6103d06103cb36600461155f565b61098d565b60405161031391906117da565b6103a86103eb3660046118b1565b610a51565b6103a86103fe36600461179e565b610ad4565b60095461037d906001600160a01b031681565b61037d61042436600461155f565b6003602052600090815260409020546001600160a01b031681565b60085461037d906001600160a01b031681565b6103a8610460366004611952565b610bc7565b610485610473366004611952565b60026020526000908152604090205481565b604051908152602001610313565b6103a86104a1366004611a35565b610c13565b610347610e41565b6103a86104bc366004611b4e565b610e4e565b6104d46104cf36600461155f565b610eba565b6040516103139190611b8a565b6103a86104ef366004611c1f565b611030565b61050761050236600461155f565b611115565b6040805161ffff938416815292909116602083015201610313565b61034761053036600461155f565b611167565b6103a8610543366004611952565b6111d9565b600a5461037d906001600160a01b031681565b61037d61056936600461155f565b611225565b6103a861057c366004611952565b600780546001600160a01b0319166001600160a01b0392909216919091179055565b61032f6105ac366004611cca565b600560209081526000928352604080842090915290825290205460ff1681565b6105df6105da36600461155f565b61126b565b6040516103139190611cfd565b61037d6105fa36600461155f565b61133d565b60006301ffc9a760e01b6001600160e01b03198316148061063057506380ac58cd60e01b6001600160e01b03198316145b8061064b5750635b5e139f60e01b6001600160e01b03198316145b92915050565b6000805461065e90611d0c565b80601f016020809104026020016040519081016040528092919081815260200182805461068a90611d0c565b80156106d75780601f106106ac576101008083540402835291602001916106d7565b820191906000526020600020905b8154815290600101906020018083116106ba57829003601f168201915b505050505081565b6000818152600360205260409020546001600160a01b03163381148061072857506001600160a01b038116600090815260056020908152604080832033845290915290205460ff165b61076a5760405162461bcd60e51b815260206004820152600e60248201526d1393d517d055551213d49256915160921b60448201526064015b60405180910390fd5b60008281526004602052604080822080546001600160a01b0319166001600160a01b0387811691821790925591518593918516917f8c5be1e5ebec7d5bd14f71427d1e84f3dd0314c0f7b2291e5b200ac8c7c3b92591a4505050565b6000818152600360205260409020546001600160a01b0384811691161461081c5760405162461bcd60e51b815260206004820152600a60248201526957524f4e475f46524f4d60b01b6044820152606401610761565b6001600160a01b0382166108665760405162461bcd60e51b81526020600482015260116024820152701253959053125117d49150d25412515395607a1b6044820152606401610761565b336001600160a01b03841614806108a057506001600160a01b038316600090815260056020908152604080832033845290915290205460ff165b806108c157506000818152600460205260409020546001600160a01b031633145b6108fe5760405162461bcd60e51b815260206004820152600e60248201526d1393d517d055551213d49256915160921b6044820152606401610761565b6001600160a01b0380841660008181526002602090815260408083208054600019019055938616808352848320805460010190558583526003825284832080546001600160a01b03199081168317909155600490925284832080549092169091559251849392917fddf252ad1be2c89b69c2b068fc378daa952ba7f163c4a11628f55a4df523b3ef91a4505050565b6040805160a0810182526000808252602082018190529181018290526060810182905260808101919091526109c182611380565b6109dd5760405162461bcd60e51b815260040161076190611d47565b506000908152600b6020908152604091829020825160a0810184526001909101546001600160e81b031960e882901b16825261ffff63010000008204811693830193909352600160281b8104831693820193909352600160381b830482166060820152600160481b90920416608082015290565b6008546001600160a01b03163314610a7b5760405162461bcd60e51b815260040161076190611d6f565b80516000838152600b6020908152604090912080549184015163ffffffff60a01b1990921661ffff938416600160a01b0261ffff60b01b191617600160b01b9390921692909202179055610acf838361139d565b505050565b610adf8383836107c6565b6001600160a01b0382163b1580610b885750604051630a85bd0160e11b8082523360048301526001600160a01b03858116602484015260448301849052608060648401526000608484015290919084169063150b7a029060a4016020604051808303816000875af1158015610b58573d6000803e3d6000fd5b505050506040513d601f19601f82011682018060405250810190610b7c9190611d96565b6001600160e01b031916145b610acf5760405162461bcd60e51b815260206004820152601060248201526f155394d0519157d49150d2541251539560821b6044820152606401610761565b600a546001600160a01b03163314610bf15760405162461bcd60e51b815260040161076190611d6f565b600980546001600160a01b0319166001600160a01b0392909216919091179055565b6009546001600160a01b03163314610c3d5760405162461bcd60e51b815260040161076190611d6f565b6000918252600b60209081526040928390208251815484840151858701516001600160a01b039384166001600160b01b031990931692909217600160a01b61ffff928316021761ffff60b01b1916600160b01b92821692909202919091178355606080860151805160018601805483890151848c01518587015160809687015160e89690961c64ffffffffff19909416939093176301000000928916929092029190911768ffffffff00000000001916600160281b918816820268ffff00000000000000191617600160381b9288168302176affff0000000000000000001916600160481b948816850217909255838a01516002890180546001600160a01b031916919098161790965560a098890151805160039098018054998201519b82015195820151948201519a82015160c083015160e0840151610100909401519a891663ffffffff19909c169b909b17620100009d9098169c909c029690961765ffff00000000191664010000000060ff9687160265ff00000000001916179385169091029290921767ffff0000000000001916600160301b9884169890980267ff000000000000001916979097179782169093029690961769ffff00000000000000001916600160401b9487169490940269ff0000000000000000001916939093179085169093029290921760ff60501b1916600160501b9390921692909202179055565b6001805461065e90611d0c565b3360008181526005602090815260408083206001600160a01b03871680855290835292819020805460ff191686151590811790915590519081529192917f17307eab39ab6107e8899845ad3d59bd9653f200f220920489ca2b5937696c31910160405180910390a35050565b610ec26114a8565b610ecb82611380565b610ee75760405162461bcd60e51b815260040161076190611d47565b506000908152600b6020908152604091829020825160c0808201855282546001600160a01b03808216845261ffff600160a01b8304811685880152600160b01b909204821684880152865160a0808201895260018701546001600160e81b031960e882901b168352630100000081048516838a0152600160281b8082048616848c0152600160381b8083048716606086810191909152600160481b938490048816608080880191909152818b019690965260028b0154909616858a01528b5161012081018d526003909a01548088168b526201000081049097169a8a019a909a5260ff640100000000870481169b8a019b909b5285048a1693880193909352600160301b8404891691870191909152958204871685870152600160401b8204871692850192909252908104851660e0840152600160501b90049093166101008201529082015290565b61103b8484846107c6565b6001600160a01b0383163b15806110d05750604051630a85bd0160e11b808252906001600160a01b0385169063150b7a0290611081903390899088908890600401611db3565b6020604051808303816000875af11580156110a0573d6000803e3d6000fd5b505050506040513d601f19601f820116820180604052508101906110c49190611d96565b6001600160e01b031916145b61110f5760405162461bcd60e51b815260206004820152601060248201526f155394d0519157d49150d2541251539560821b6044820152606401610761565b50505050565b60008061112183611380565b61113d5760405162461bcd60e51b815260040161076190611d47565b50506000908152600b602052604090205461ffff600160a01b8204811692600160b01b9092041690565b600754604051631b3820d360e21b8152600481018390526060916001600160a01b031690636ce0834c90602401600060405180830381865afa1580156111b1573d6000803e3d6000fd5b505050506040513d6000823e601f3d908101601f1916820160405261064b9190810190611df0565b600a546001600160a01b031633146112035760405162461bcd60e51b815260040161076190611d6f565b600880546001600160a01b0319166001600160a01b0392909216919091179055565b600061123082611380565b61124c5760405162461bcd60e51b815260040161076190611d47565b506000908152600b60205260409020600201546001600160a01b031690565b611273611513565b61127c82611380565b6112985760405162461bcd60e51b815260040161076190611d47565b506000908152600b602090815260409182902082516101208101845260039091015461ffff8082168352620100008204169282019290925260ff6401000000008304811693820193909352600160281b820483166060820152600160301b820483166080820152600160381b8204831660a0820152600160401b8204831660c0820152600160481b8204831660e0820152600160501b90910490911661010082015290565b600061134882611380565b6113645760405162461bcd60e51b815260040161076190611d47565b506000908152600b60205260409020546001600160a01b031690565b6000908152600360205260409020546001600160a01b0316151590565b6001600160a01b0382166113e75760405162461bcd60e51b81526020600482015260116024820152701253959053125117d49150d25412515395607a1b6044820152606401610761565b6000818152600360205260409020546001600160a01b03161561143d5760405162461bcd60e51b815260206004820152600e60248201526d1053149150511657d3525395115160921b6044820152606401610761565b6001600160a01b038216600081815260026020908152604080832080546001019055848352600390915280822080546001600160a01b0319168417905551839291907fddf252ad1be2c89b69c2b068fc378daa952ba7f163c4a11628f55a4df523b3ef908290a45050565b6040805160c08101825260008082526020820181905291810191909152606081016114fa6040805160a08101825260008082526020820181905291810182905260608101829052608081019190915290565b81526000602082015260400161150e611513565b905290565b6040805161012081018252600080825260208201819052918101829052606081018290526080810182905260a0810182905260c0810182905260e0810182905261010081019190915290565b60006020828403121561157157600080fd5b5035919050565b80516001600160e81b031916825260208082015161ffff9081169184019190915260408083015182169084015260608083015182169084015260809182015116910152565b61ffff8082511683528060208301511660208401525060ff604082015116604083015260608101516115f4606084018260ff169052565b506080810151611609608084018260ff169052565b5060a081015161161e60a084018260ff169052565b5060c081015161163360c084018260ff169052565b5060e081015161164860e084018260ff169052565b506101008181015160ff81168483015261110f565b6001600160a01b03878116825261ffff87811660208401528616604083015261024082019061168f6060840187611578565b84166101008301526116a56101208301846115bd565b979650505050505050565b6001600160e01b0319811681146116c657600080fd5b50565b6000602082840312156116db57600080fd5b81356116e6816116b0565b9392505050565b60005b838110156117085781810151838201526020016116f0565b8381111561110f5750506000910152565b600081518084526117318160208601602086016116ed565b601f01601f19169290920160200192915050565b6020815260006116e66020830184611719565b80356001600160a01b038116811461176f57600080fd5b919050565b6000806040838503121561178757600080fd5b61179083611758565b946020939093013593505050565b6000806000606084860312156117b357600080fd5b6117bc84611758565b92506117ca60208501611758565b9150604084013590509250925092565b60a0810161064b8284611578565b634e487b7160e01b600052604160045260246000fd5b604051610120810167ffffffffffffffff81118282101715611822576118226117e8565b60405290565b60405160c0810167ffffffffffffffff81118282101715611822576118226117e8565b60405160a0810167ffffffffffffffff81118282101715611822576118226117e8565b604051601f8201601f1916810167ffffffffffffffff81118282101715611897576118976117e8565b604052919050565b803561ffff8116811461176f57600080fd5b6000806000608084860312156118c657600080fd5b6118cf84611758565b9250602080850135925085605f8601126118e857600080fd5b6040516040810181811067ffffffffffffffff8211171561190b5761190b6117e8565b60405280608087018881111561192057600080fd5b604088015b81811015611943576119368161189f565b8352918401918401611925565b50505080925050509250925092565b60006020828403121561196457600080fd5b6116e682611758565b803560ff8116811461176f57600080fd5b6000610120828403121561199157600080fd5b6119996117fe565b90506119a48261189f565b81526119b26020830161189f565b60208201526119c36040830161196d565b60408201526119d46060830161196d565b60608201526119e56080830161196d565b60808201526119f660a0830161196d565b60a0820152611a0760c0830161196d565b60c0820152611a1860e0830161196d565b60e0820152610100611a2b81840161196d565b9082015292915050565b600080828403610260811215611a4a57600080fd5b83359250610240601f1982011215611a6157600080fd5b611a69611828565b611a7560208601611758565b8152611a836040860161189f565b6020820152611a946060860161189f565b604082015260a0607f1983011215611aab57600080fd5b611ab361184b565b915060808501356001600160e81b031981168114611ad057600080fd5b8252611ade60a0860161189f565b6020830152611aef60c0860161189f565b6040830152611b0060e0860161189f565b6060830152611b12610100860161189f565b6080830152816060820152611b2a6101208601611758565b6080820152611b3d86610140870161197e565b60a082015280925050509250929050565b60008060408385031215611b6157600080fd5b611b6a83611758565b915060208301358015158114611b7f57600080fd5b809150509250929050565b60006102408201905060018060a01b03808451168352602084015161ffff808216602086015280604087015116604086015250506060840151611bd06060850182611578565b5060808401511661010083015260a0830151611bf06101208401826115bd565b5092915050565b600067ffffffffffffffff821115611c1157611c116117e8565b50601f01601f191660200190565b60008060008060808587031215611c3557600080fd5b611c3e85611758565b9350611c4c60208601611758565b925060408501359150606085013567ffffffffffffffff811115611c6f57600080fd5b8501601f81018713611c8057600080fd5b8035611c93611c8e82611bf7565b61186e565b818152886020838501011115611ca857600080fd5b8160208401602083013760006020838301015280935050505092959194509250565b60008060408385031215611cdd57600080fd5b611ce683611758565b9150611cf460208401611758565b90509250929050565b610120810161064b82846115bd565b600181811c90821680611d2057607f821691505b60208210811415611d4157634e487b7160e01b600052602260045260246000fd5b50919050565b6020808252600e908201526d1393d391561254d510539517d25160921b604082015260600190565b6020808252600d908201526c1393d517d41154935255151151609a1b604082015260600190565b600060208284031215611da857600080fd5b81516116e6816116b0565b6001600160a01b0385811682528416602082015260408101839052608060608201819052600090611de690830184611719565b9695505050505050565b600060208284031215611e0257600080fd5b815167ffffffffffffffff811115611e1957600080fd5b8201601f81018413611e2a57600080fd5b8051611e38611c8e82611bf7565b818152856020838501011115611e4d57600080fd5b611e5e8260208301602086016116ed565b9594505050505056fea2646970667358221220c0f2a40e7702058a3ca3ec16330f7d94a146cb55cf1cde80038a205726f4f62664736f6c634300080a0033",
    "linkReferences": {}
  }
}