{
  "abi": [
    {
      "inputs": [],
      "stateMutability": "nonpayable",
      "type": "constructor"
    },
    {
      "inputs": [],
      "name": "distributor",
      "outputs": [
        {
          "internalType": "contract Distributor",
          "name": "",
          "type": "address"
        }
      ],
      "stateMutability": "view",
      "type": "function"
    },
    {
      "inputs": [],
      "name": "dlny",
      "outputs": [
        {
          "internalType": "contract DLNY",
          "name": "",
          "type": "address"
        }
      ],
      "stateMutability": "view",
      "type": "function"
    },
    {
      "inputs": [],
      "name": "phaseManager",
      "outputs": [
        {
          "internalType": "contract PhaseManager",
          "name": "",
          "type": "address"
        }
      ],
      "stateMutability": "view",
      "type": "function"
    },
    {
      "inputs": [],
      "name": "togglePhase",
      "outputs": [],
      "stateMutability": "nonpayable",
      "type": "function"
    },
    {
      "inputs": [],
      "name": "viewPhase",
      "outputs": [
        {
          "internalType": "uint256",
          "name": "",
          "type": "uint256"
        }
      ],
      "stateMutability": "view",
      "type": "function"
    }
  ],
  "bytecode": {
    "object": "0x608060405234801561001057600080fd5b5060405161001d90610100565b604051809103906000f080158015610039573d6000803e3d6000fd5b50600080546001600160a01b0319166001600160a01b03929092169190911790556040516100669061010d565b604051809103906000f080158015610082573d6000803e3d6000fd5b50600180546001600160a01b0319166001600160a01b039290921691821790556040516100ae9061011a565b6001600160a01b039091168152602001604051809103906000f0801580156100da573d6000803e3d6000fd5b50600280546001600160a01b0319166001600160a01b0392909216919091179055610127565b61024b8061036583390190565b610849806105b083390190565b610f3b80610df983390190565b61022f806101366000396000f3fe608060405234801561001057600080fd5b50600436106100575760003560e01c8063058506e01461005c57806337dd706314610066578063918dd5c014610081578063bfe10928146100ac578063d0a9ec9a146100bf575b600080fd5b6100646100d2565b005b61006e61012d565b6040519081526020015b60405180910390f35b600054610094906001600160a01b031681565b6040516001600160a01b039091168152602001610078565b600154610094906001600160a01b031681565b600254610094906001600160a01b031681565b600080546040805163db6f595360e01b815290516001600160a01b039092169263db6f59539260048084019382900301818387803b15801561011357600080fd5b505af1158015610127573d6000803e3d6000fd5b50505050565b60008060009054906101000a90046001600160a01b03166001600160a01b031663055ad42e6040518163ffffffff1660e01b8152600401602060405180830381865afa158015610181573d6000803e3d6000fd5b505050506040513d601f19601f820116820180604052508101906101a591906101bb565b60038111156101b6576101b66101e3565b905090565b6000602082840312156101cd57600080fd5b8151600481106101dc57600080fd5b9392505050565b634e487b7160e01b600052602160045260246000fdfea2646970667358221220d05bab86429a4f8a5c5f28ebc162f8760c6ff0e86816f517ac3c19ba2c781b3f64736f6c634300080a0033608060405234801561001057600080fd5b50600080546001600160a01b03191633179055610219806100326000396000f3fe608060405234801561001057600080fd5b506004361061004c5760003560e01c8063055ad42e146100515780630e1b26c614610075578063d5f3948814610089578063db6f5953146100b4575b600080fd5b600054600160a01b900460ff165b60405161006c9190610195565b60405180910390f35b60005461005f90600160a01b900460ff1681565b60005461009c906001600160a01b031681565b6040516001600160a01b03909116815260200161006c565b6100bc6100be565b005b6000546001600160a01b0316331461011c5760405162461bcd60e51b815260206004820152601c60248201527f50686173654d616e616765723a204e4f545f415554484f524953454400000000604482015260640160405180910390fd5b600054600160a01b900460ff16600381111561013a5761013a61017f565b6101459060016101bd565b60038111156101565761015661017f565b6000805460ff60a01b1916600160a01b8360038111156101785761017861017f565b0217905550565b634e487b7160e01b600052602160045260246000fd5b60208101600483106101b757634e487b7160e01b600052602160045260246000fd5b91905290565b600082198211156101de57634e487b7160e01b600052601160045260246000fd5b50019056fea2646970667358221220aadfae46d4cde68550f5032071dce6f71826467cb93d92e13b9a09368b1de3b064736f6c634300080a0033608060405260018055662386f26fc1000060035534801561001f57600080fd5b506100293361002e565b61007e565b600080546001600160a01b038381166001600160a01b0319831681178455604051919092169283917f8be0079c531659141344cd1fd0a4f28419497f9722a3daafe3b4186f6b6457e09190a35050565b6107bc8061008d6000396000f3fe608060405234801561001057600080fd5b50600436106100cf5760003560e01c8063715018a61161008c578063c031a66f11610066578063c031a66f14610186578063d0a9ec9a146101af578063e6b357ed146101c2578063f2fde38b146101d557600080fd5b8063715018a61461014657806389d818bc1461014e5780638da5cb5b1461016157600080fd5b8063059f8b16146100d45780630c1e1fcb146100f0578063144fa6d71461010557806346e04a2f1461011857806348c54b9d1461012b5780635ffe614614610133575b600080fd5b6100dd60035481565b6040519081526020015b60405180910390f35b6101036100fe366004610688565b6101e8565b005b610103610113366004610688565b61023f565b6101036101263660046106aa565b61028b565b6101036103b2565b6101036101413660046106aa565b610443565b610103610472565b61010361015c366004610688565b6104a8565b6000546001600160a01b03165b6040516001600160a01b0390911681526020016100e7565b6100dd610194366004610688565b6001600160a01b031660009081526005602052604090205490565b60025461016e906001600160a01b031681565b6101036101d03660046106c3565b6104f3565b6101036101e3366004610688565b610581565b6000546001600160a01b0316331461021b5760405162461bcd60e51b8152600401610212906106ed565b60405180910390fd5b6001600160a01b03166000908152600460205260409020805460ff19166001179055565b6000546001600160a01b031633146102695760405162461bcd60e51b8152600401610212906106ed565b600280546001600160a01b0319166001600160a01b0392909216919091179055565b6001546001146102ca5760405162461bcd60e51b815260206004820152600a6024820152695245454e5452414e435960b01b6044820152606401610212565b6002600155336000908152600560205260409020548111156103225760405162461bcd60e51b81526020600482015260116024820152701253959053125117d0d310525357d05355607a1b6044820152606401610212565b3360009081526005602052604081208054839290610341908490610738565b90915550506002546040516340c10f1960e01b8152336004820152602481018390526001600160a01b03909116906340c10f19906044015b600060405180830381600087803b15801561039357600080fd5b505af11580156103a7573d6000803e3d6000fd5b505060018055505050565b6001546001146103f15760405162461bcd60e51b815260206004820152600a6024820152695245454e5452414e435960b01b6044820152606401610212565b60026001819055336000818152600560205260408082208054929055925492516340c10f1960e01b8152600481019290925260248201819052916001600160a01b0316906340c10f1990604401610379565b6000546001600160a01b0316331461046d5760405162461bcd60e51b8152600401610212906106ed565b600355565b6000546001600160a01b0316331461049c5760405162461bcd60e51b8152600401610212906106ed565b6104a6600061061c565b565b6000546001600160a01b031633146104d25760405162461bcd60e51b8152600401610212906106ed565b6001600160a01b03166000908152600460205260409020805460ff19169055565b3360009081526004602052604090205460ff166105435760405162461bcd60e51b815260206004820152600e60248201526d24a72b20a624a22fa627a3a3a2a960911b6044820152606401610212565b600354610550908261074f565b6001600160a01b0383166000908152600560205260408120805490919061057890849061076e565b90915550505050565b6000546001600160a01b031633146105ab5760405162461bcd60e51b8152600401610212906106ed565b6001600160a01b0381166106105760405162461bcd60e51b815260206004820152602660248201527f4f776e61626c653a206e6577206f776e657220697320746865207a65726f206160448201526564647265737360d01b6064820152608401610212565b6106198161061c565b50565b600080546001600160a01b038381166001600160a01b0319831681178455604051919092169283917f8be0079c531659141344cd1fd0a4f28419497f9722a3daafe3b4186f6b6457e09190a35050565b80356001600160a01b038116811461068357600080fd5b919050565b60006020828403121561069a57600080fd5b6106a38261066c565b9392505050565b6000602082840312156106bc57600080fd5b5035919050565b600080604083850312156106d657600080fd5b6106df8361066c565b946020939093013593505050565b6020808252818101527f4f776e61626c653a2063616c6c6572206973206e6f7420746865206f776e6572604082015260600190565b634e487b7160e01b600052601160045260246000fd5b60008282101561074a5761074a610722565b500390565b600081600019048311821515161561076957610769610722565b500290565b6000821982111561078157610781610722565b50019056fea2646970667358221220f579e97d4357203486908a1a32ee32b135e68f50eb776580f7cdeb824e1f8b8d64736f6c634300080a003360e06040523480156200001157600080fd5b5060405162000f3b38038062000f3b833981016040819052620000349162000221565b604080518082018252600a8152692226272c902a37b5b2b760b11b602080830191825283518085019094526004845263f09f8c8d60e01b9084015281519192916012916200008691600091906200017b565b5081516200009c9060019060208501906200017b565b5060ff81166080524660a052620000b2620000df565b60c0525050600680546001600160a01b0319166001600160a01b0393909316929092179091555062000334565b60007f8b73c3c69bb8fe3d512ecc4cf759cc79239f7b179b0ffacaa9a75d522b39400f600060405162000113919062000290565b6040805191829003822060208301939093528101919091527fc89efdaa54c0f20c7adf612882df0950f5a951637e0307cdcb4c672f298b8bc660608201524660808201523060a082015260c00160405160208183030381529060405280519060200120905090565b828054620001899062000253565b90600052602060002090601f016020900481019282620001ad5760008555620001f8565b82601f10620001c857805160ff1916838001178555620001f8565b82800160010185558215620001f8579182015b82811115620001f8578251825591602001919060010190620001db565b50620002069291506200020a565b5090565b5b808211156200020657600081556001016200020b565b6000602082840312156200023457600080fd5b81516001600160a01b03811681146200024c57600080fd5b9392505050565b600181811c908216806200026857607f821691505b602082108114156200028a57634e487b7160e01b600052602260045260246000fd5b50919050565b600080835481600182811c915080831680620002ad57607f831692505b6020808410821415620002ce57634e487b7160e01b86526022600452602486fd5b818015620002e55760018114620002f75762000326565b60ff1986168952848901965062000326565b60008a81526020902060005b868110156200031e5781548b82015290850190830162000303565b505084890196505b509498975050505050505050565b60805160a05160c051610bd7620003646000396000610499015260006104640152600061015f0152610bd76000f3fe608060405234801561001057600080fd5b50600436106100ea5760003560e01c806370a082311161008c578063a9059cbb11610066578063a9059cbb146101f8578063bfe109281461020b578063d505accf14610236578063dd62ed3e1461024957600080fd5b806370a08231146101b05780637ecebe00146101d057806395d89b41146101f057600080fd5b806323b872dd116100c857806323b872dd14610147578063313ce5671461015a5780633644e5151461019357806340c10f191461019b57600080fd5b806306fdde03146100ef578063095ea7b31461010d57806318160ddd14610130575b600080fd5b6100f7610274565b60405161010491906108e6565b60405180910390f35b61012061011b366004610957565b610302565b6040519015158152602001610104565b61013960025481565b604051908152602001610104565b610120610155366004610981565b61036e565b6101817f000000000000000000000000000000000000000000000000000000000000000081565b60405160ff9091168152602001610104565b610139610460565b6101ae6101a9366004610957565b6104bb565b005b6101396101be3660046109bd565b60036020526000908152604090205481565b6101396101de3660046109bd565b60056020526000908152604090205481565b6100f7610518565b610120610206366004610957565b610525565b60065461021e906001600160a01b031681565b6040516001600160a01b039091168152602001610104565b6101ae6102443660046109df565b61059d565b610139610257366004610a52565b600460209081526000928352604080842090915290825290205481565b6000805461028190610a85565b80601f01602080910402602001604051908101604052809291908181526020018280546102ad90610a85565b80156102fa5780601f106102cf576101008083540402835291602001916102fa565b820191906000526020600020905b8154815290600101906020018083116102dd57829003601f168201915b505050505081565b3360008181526004602090815260408083206001600160a01b038716808552925280832085905551919290917f8c5be1e5ebec7d5bd14f71427d1e84f3dd0314c0f7b2291e5b200ac8c7c3b9259061035d9086815260200190565b60405180910390a350600192915050565b6001600160a01b038316600090815260046020908152604080832033845290915281205460001981146103ca576103a58382610ad6565b6001600160a01b03861660009081526004602090815260408083203384529091529020555b6001600160a01b038516600090815260036020526040812080548592906103f2908490610ad6565b90915550506001600160a01b03808516600081815260036020526040908190208054870190555190918716907fddf252ad1be2c89b69c2b068fc378daa952ba7f163c4a11628f55a4df523b3ef9061044d9087815260200190565b60405180910390a3506001949350505050565b60007f00000000000000000000000000000000000000000000000000000000000000004614610496576104916107e1565b905090565b507f000000000000000000000000000000000000000000000000000000000000000090565b6006546001600160a01b0316331461050a5760405162461bcd60e51b815260206004820152600d60248201526c1393d517d41154935255151151609a1b60448201526064015b60405180910390fd5b610514828261087b565b5050565b6001805461028190610a85565b33600090815260036020526040812080548391908390610546908490610ad6565b90915550506001600160a01b038316600081815260036020526040908190208054850190555133907fddf252ad1be2c89b69c2b068fc378daa952ba7f163c4a11628f55a4df523b3ef9061035d9086815260200190565b428410156105ed5760405162461bcd60e51b815260206004820152601760248201527f5045524d49545f444541444c494e455f455850495245440000000000000000006044820152606401610501565b600060016105f9610460565b6001600160a01b038a811660008181526005602090815260409182902080546001810190915582517f6e71edae12b1b97f4d1f60370fef10105fa2faae0126114a169c64845d6126c98184015280840194909452938d166060840152608083018c905260a083019390935260c08083018b90528151808403909101815260e08301909152805192019190912061190160f01b6101008301526101028201929092526101228101919091526101420160408051601f198184030181528282528051602091820120600084529083018083525260ff871690820152606081018590526080810184905260a0016020604051602081039080840390855afa158015610705573d6000803e3d6000fd5b5050604051601f1901519150506001600160a01b0381161580159061073b5750876001600160a01b0316816001600160a01b0316145b6107785760405162461bcd60e51b815260206004820152600e60248201526d24a72b20a624a22fa9a4a3a722a960911b6044820152606401610501565b6001600160a01b0390811660009081526004602090815260408083208a8516808552908352928190208990555188815291928a16917f8c5be1e5ebec7d5bd14f71427d1e84f3dd0314c0f7b2291e5b200ac8c7c3b925910160405180910390a350505050505050565b60007f8b73c3c69bb8fe3d512ecc4cf759cc79239f7b179b0ffacaa9a75d522b39400f60006040516108139190610aed565b6040805191829003822060208301939093528101919091527fc89efdaa54c0f20c7adf612882df0950f5a951637e0307cdcb4c672f298b8bc660608201524660808201523060a082015260c00160405160208183030381529060405280519060200120905090565b806002600082825461088d9190610b89565b90915550506001600160a01b0382166000818152600360209081526040808320805486019055518481527fddf252ad1be2c89b69c2b068fc378daa952ba7f163c4a11628f55a4df523b3ef910160405180910390a35050565b600060208083528351808285015260005b81811015610913578581018301518582016040015282016108f7565b81811115610925576000604083870101525b50601f01601f1916929092016040019392505050565b80356001600160a01b038116811461095257600080fd5b919050565b6000806040838503121561096a57600080fd5b6109738361093b565b946020939093013593505050565b60008060006060848603121561099657600080fd5b61099f8461093b565b92506109ad6020850161093b565b9150604084013590509250925092565b6000602082840312156109cf57600080fd5b6109d88261093b565b9392505050565b600080600080600080600060e0888a0312156109fa57600080fd5b610a038861093b565b9650610a116020890161093b565b95506040880135945060608801359350608088013560ff81168114610a3557600080fd5b9699959850939692959460a0840135945060c09093013592915050565b60008060408385031215610a6557600080fd5b610a6e8361093b565b9150610a7c6020840161093b565b90509250929050565b600181811c90821680610a9957607f821691505b60208210811415610aba57634e487b7160e01b600052602260045260246000fd5b50919050565b634e487b7160e01b600052601160045260246000fd5b600082821015610ae857610ae8610ac0565b500390565b600080835481600182811c915080831680610b0957607f831692505b6020808410821415610b2957634e487b7160e01b86526022600452602486fd5b818015610b3d5760018114610b4e57610b7b565b60ff19861689528489019650610b7b565b60008a81526020902060005b86811015610b735781548b820152908501908301610b5a565b505084890196505b509498975050505050505050565b60008219821115610b9c57610b9c610ac0565b50019056fea2646970667358221220741e3dafadb383ae64e364b5922116a86a77a5d32f408356826dfbb55e7a7ad664736f6c634300080a0033",
    "linkReferences": {}
  }
}