{
  "abi": [
    {
      "inputs": [],
      "stateMutability": "nonpayable",
      "type": "constructor"
    },
    {
      "inputs": [],
      "name": "phaseManager",
      "outputs": [
        {
          "internalType": "contract PhaseManager",
          "name": "",
          "type": "address"
        }
      ],
      "stateMutability": "view",
      "type": "function"
    },
    {
      "inputs": [],
      "name": "togglePhase",
      "outputs": [],
      "stateMutability": "nonpayable",
      "type": "function"
    }
  ],
  "bytecode": {
    "object": "0x608060405234801561001057600080fd5b5060405161001d9061005f565b604051809103906000f080158015610039573d6000803e3d6000fd5b50600080546001600160a01b0319166001600160a01b039290921691909117905561006c565b61024b8061017683390190565b60fc8061007a6000396000f3fe6080604052348015600f57600080fd5b506004361060325760003560e01c8063058506e0146037578063918dd5c014603f575b600080fd5b603d606d565b005b6000546051906001600160a01b031681565b6040516001600160a01b03909116815260200160405180910390f35b600080546040805163db6f595360e01b815290516001600160a01b039092169263db6f59539260048084019382900301818387803b15801560ad57600080fd5b505af115801560c0573d6000803e3d6000fd5b5050505056fea264697066735822122053233de9d3e6939e76976247968127a25f53e1b56499ca22e47a3f1f486cc77564736f6c634300080a0033608060405234801561001057600080fd5b50600080546001600160a01b03191633179055610219806100326000396000f3fe608060405234801561001057600080fd5b506004361061004c5760003560e01c8063055ad42e146100515780630e1b26c614610075578063d5f3948814610089578063db6f5953146100b4575b600080fd5b600054600160a01b900460ff165b60405161006c9190610195565b60405180910390f35b60005461005f90600160a01b900460ff1681565b60005461009c906001600160a01b031681565b6040516001600160a01b03909116815260200161006c565b6100bc6100be565b005b6000546001600160a01b0316331461011c5760405162461bcd60e51b815260206004820152601c60248201527f50686173654d616e616765723a204e4f545f415554484f524953454400000000604482015260640160405180910390fd5b600054600160a01b900460ff16600381111561013a5761013a61017f565b6101459060016101bd565b60038111156101565761015661017f565b6000805460ff60a01b1916600160a01b8360038111156101785761017861017f565b0217905550565b634e487b7160e01b600052602160045260246000fd5b60208101600483106101b757634e487b7160e01b600052602160045260246000fd5b91905290565b600082198211156101de57634e487b7160e01b600052601160045260246000fd5b50019056fea2646970667358221220aadfae46d4cde68550f5032071dce6f71826467cb93d92e13b9a09368b1de3b064736f6c634300080a0033",
    "linkReferences": {}
  }
}