{
  "abi": [
    {
      "inputs": [],
      "stateMutability": "nonpayable",
      "type": "constructor"
    },
    {
      "inputs": [],
      "name": "activePhase",
      "outputs": [
        {
          "internalType": "enum IPhaseManager.Phase",
          "name": "",
          "type": "uint8"
        }
      ],
      "stateMutability": "view",
      "type": "function"
    },
    {
      "inputs": [],
      "name": "changePhase",
      "outputs": [],
      "stateMutability": "nonpayable",
      "type": "function"
    },
    {
      "inputs": [],
      "name": "currentPhase",
      "outputs": [
        {
          "internalType": "enum IPhaseManager.Phase",
          "name": "",
          "type": "uint8"
        }
      ],
      "stateMutability": "view",
      "type": "function"
    },
    {
      "inputs": [],
      "name": "deployer",
      "outputs": [
        {
          "internalType": "address",
          "name": "",
          "type": "address"
        }
      ],
      "stateMutability": "view",
      "type": "function"
    }
  ],
  "bytecode": {
    "object": "0x608060405234801561001057600080fd5b50600080546001600160a01b03191633179055610219806100326000396000f3fe608060405234801561001057600080fd5b506004361061004c5760003560e01c8063055ad42e146100515780630e1b26c614610075578063d5f3948814610089578063db6f5953146100b4575b600080fd5b600054600160a01b900460ff165b60405161006c9190610195565b60405180910390f35b60005461005f90600160a01b900460ff1681565b60005461009c906001600160a01b031681565b6040516001600160a01b03909116815260200161006c565b6100bc6100be565b005b6000546001600160a01b0316331461011c5760405162461bcd60e51b815260206004820152601c60248201527f50686173654d616e616765723a204e4f545f415554484f524953454400000000604482015260640160405180910390fd5b600054600160a01b900460ff16600381111561013a5761013a61017f565b6101459060016101bd565b60038111156101565761015661017f565b6000805460ff60a01b1916600160a01b8360038111156101785761017861017f565b0217905550565b634e487b7160e01b600052602160045260246000fd5b60208101600483106101b757634e487b7160e01b600052602160045260246000fd5b91905290565b600082198211156101de57634e487b7160e01b600052601160045260246000fd5b50019056fea264697066735822122079b51cd2af532eb359e0c93709d2b4c98acfdf23070358248b12c1b4607cadc864736f6c634300080a0033",
    "linkReferences": {}
  }
}