{
  "abi": [
    {
      "inputs": [],
      "stateMutability": "nonpayable",
      "type": "constructor"
    },
    {
      "anonymous": false,
      "inputs": [
        {
          "indexed": true,
          "internalType": "address",
          "name": "previousOwner",
          "type": "address"
        },
        {
          "indexed": true,
          "internalType": "address",
          "name": "newOwner",
          "type": "address"
        }
      ],
      "name": "OwnershipTransferred",
      "type": "event"
    },
    {
      "inputs": [],
      "name": "MULTIPLIER",
      "outputs": [
        {
          "internalType": "uint256",
          "name": "",
          "type": "uint256"
        }
      ],
      "stateMutability": "view",
      "type": "function"
    },
    {
      "inputs": [
        {
          "internalType": "address",
          "name": "_newLogger",
          "type": "address"
        }
      ],
      "name": "addLogger",
      "outputs": [],
      "stateMutability": "nonpayable",
      "type": "function"
    },
    {
      "inputs": [
        {
          "internalType": "uint256",
          "name": "tokensToClaim",
          "type": "uint256"
        }
      ],
      "name": "claimTokens",
      "outputs": [],
      "stateMutability": "nonpayable",
      "type": "function"
    },
    {
      "inputs": [],
      "name": "claimTokens",
      "outputs": [],
      "stateMutability": "nonpayable",
      "type": "function"
    },
    {
      "inputs": [],
      "name": "dlny",
      "outputs": [
        {
          "internalType": "address",
          "name": "",
          "type": "address"
        }
      ],
      "stateMutability": "view",
      "type": "function"
    },
    {
      "inputs": [
        {
          "internalType": "address",
          "name": "user",
          "type": "address"
        },
        {
          "internalType": "uint256",
          "name": "gasUsed",
          "type": "uint256"
        }
      ],
      "name": "logPoints",
      "outputs": [],
      "stateMutability": "nonpayable",
      "type": "function"
    },
    {
      "inputs": [],
      "name": "owner",
      "outputs": [
        {
          "internalType": "address",
          "name": "",
          "type": "address"
        }
      ],
      "stateMutability": "view",
      "type": "function"
    },
    {
      "inputs": [
        {
          "internalType": "address",
          "name": "user",
          "type": "address"
        }
      ],
      "name": "pendingTokens",
      "outputs": [
        {
          "internalType": "uint256",
          "name": "",
          "type": "uint256"
        }
      ],
      "stateMutability": "view",
      "type": "function"
    },
    {
      "inputs": [
        {
          "internalType": "address",
          "name": "_logger",
          "type": "address"
        }
      ],
      "name": "removeLogger",
      "outputs": [],
      "stateMutability": "nonpayable",
      "type": "function"
    },
    {
      "inputs": [],
      "name": "renounceOwnership",
      "outputs": [],
      "stateMutability": "nonpayable",
      "type": "function"
    },
    {
      "inputs": [
        {
          "internalType": "address",
          "name": "_dlny",
          "type": "address"
        }
      ],
      "name": "setToken",
      "outputs": [],
      "stateMutability": "nonpayable",
      "type": "function"
    },
    {
      "inputs": [
        {
          "internalType": "address",
          "name": "newOwner",
          "type": "address"
        }
      ],
      "name": "transferOwnership",
      "outputs": [],
      "stateMutability": "nonpayable",
      "type": "function"
    },
    {
      "inputs": [
        {
          "internalType": "uint256",
          "name": "_newMultiplier",
          "type": "uint256"
        }
      ],
      "name": "updateMultiplier",
      "outputs": [],
      "stateMutability": "nonpayable",
      "type": "function"
    }
  ],
  "bytecode": {
    "object": "0x608060405260018055662386f26fc1000060035534801561001f57600080fd5b506100293361002e565b61007e565b600080546001600160a01b038381166001600160a01b0319831681178455604051919092169283917f8be0079c531659141344cd1fd0a4f28419497f9722a3daafe3b4186f6b6457e09190a35050565b6107bc8061008d6000396000f3fe608060405234801561001057600080fd5b50600436106100cf5760003560e01c8063715018a61161008c578063c031a66f11610066578063c031a66f14610186578063d0a9ec9a146101af578063e6b357ed146101c2578063f2fde38b146101d557600080fd5b8063715018a61461014657806389d818bc1461014e5780638da5cb5b1461016157600080fd5b8063059f8b16146100d45780630c1e1fcb146100f0578063144fa6d71461010557806346e04a2f1461011857806348c54b9d1461012b5780635ffe614614610133575b600080fd5b6100dd60035481565b6040519081526020015b60405180910390f35b6101036100fe366004610688565b6101e8565b005b610103610113366004610688565b61023f565b6101036101263660046106aa565b61028b565b6101036103b2565b6101036101413660046106aa565b610443565b610103610472565b61010361015c366004610688565b6104a8565b6000546001600160a01b03165b6040516001600160a01b0390911681526020016100e7565b6100dd610194366004610688565b6001600160a01b031660009081526005602052604090205490565b60025461016e906001600160a01b031681565b6101036101d03660046106c3565b6104f3565b6101036101e3366004610688565b610581565b6000546001600160a01b0316331461021b5760405162461bcd60e51b8152600401610212906106ed565b60405180910390fd5b6001600160a01b03166000908152600460205260409020805460ff19166001179055565b6000546001600160a01b031633146102695760405162461bcd60e51b8152600401610212906106ed565b600280546001600160a01b0319166001600160a01b0392909216919091179055565b6001546001146102ca5760405162461bcd60e51b815260206004820152600a6024820152695245454e5452414e435960b01b6044820152606401610212565b6002600155336000908152600560205260409020548111156103225760405162461bcd60e51b81526020600482015260116024820152701253959053125117d0d310525357d05355607a1b6044820152606401610212565b3360009081526005602052604081208054839290610341908490610738565b90915550506002546040516340c10f1960e01b8152336004820152602481018390526001600160a01b03909116906340c10f19906044015b600060405180830381600087803b15801561039357600080fd5b505af11580156103a7573d6000803e3d6000fd5b505060018055505050565b6001546001146103f15760405162461bcd60e51b815260206004820152600a6024820152695245454e5452414e435960b01b6044820152606401610212565b60026001819055336000818152600560205260408082208054929055925492516340c10f1960e01b8152600481019290925260248201819052916001600160a01b0316906340c10f1990604401610379565b6000546001600160a01b0316331461046d5760405162461bcd60e51b8152600401610212906106ed565b600355565b6000546001600160a01b0316331461049c5760405162461bcd60e51b8152600401610212906106ed565b6104a6600061061c565b565b6000546001600160a01b031633146104d25760405162461bcd60e51b8152600401610212906106ed565b6001600160a01b03166000908152600460205260409020805460ff19169055565b3360009081526004602052604090205460ff166105435760405162461bcd60e51b815260206004820152600e60248201526d24a72b20a624a22fa627a3a3a2a960911b6044820152606401610212565b600354610550908261074f565b6001600160a01b0383166000908152600560205260408120805490919061057890849061076e565b90915550505050565b6000546001600160a01b031633146105ab5760405162461bcd60e51b8152600401610212906106ed565b6001600160a01b0381166106105760405162461bcd60e51b815260206004820152602660248201527f4f776e61626c653a206e6577206f776e657220697320746865207a65726f206160448201526564647265737360d01b6064820152608401610212565b6106198161061c565b50565b600080546001600160a01b038381166001600160a01b0319831681178455604051919092169283917f8be0079c531659141344cd1fd0a4f28419497f9722a3daafe3b4186f6b6457e09190a35050565b80356001600160a01b038116811461068357600080fd5b919050565b60006020828403121561069a57600080fd5b6106a38261066c565b9392505050565b6000602082840312156106bc57600080fd5b5035919050565b600080604083850312156106d657600080fd5b6106df8361066c565b946020939093013593505050565b6020808252818101527f4f776e61626c653a2063616c6c6572206973206e6f7420746865206f776e6572604082015260600190565b634e487b7160e01b600052601160045260246000fd5b60008282101561074a5761074a610722565b500390565b600081600019048311821515161561076957610769610722565b500290565b6000821982111561078157610781610722565b50019056fea264697066735822122011bfa62f1f258891685c53591c1beb71610fa855369d3a4bb88b950b0ced733264736f6c634300080a0033",
    "linkReferences": {}
  }
}